{
  "_format": "hh-sol-artifact-1",
  "contractName": "MyEpicNFT",
  "sourceName": "contracts/MyEpicNFT.sol",
  "abi": [
    {
      "inputs": [],
      "stateMutability": "nonpayable",
      "type": "constructor"
    },
    {
      "anonymous": false,
      "inputs": [
        {
          "indexed": true,
          "internalType": "address",
          "name": "owner",
          "type": "address"
        },
        {
          "indexed": true,
          "internalType": "address",
          "name": "approved",
          "type": "address"
        },
        {
          "indexed": true,
          "internalType": "uint256",
          "name": "tokenId",
          "type": "uint256"
        }
      ],
      "name": "Approval",
      "type": "event"
    },
    {
      "anonymous": false,
      "inputs": [
        {
          "indexed": true,
          "internalType": "address",
          "name": "owner",
          "type": "address"
        },
        {
          "indexed": true,
          "internalType": "address",
          "name": "operator",
          "type": "address"
        },
        {
          "indexed": false,
          "internalType": "bool",
          "name": "approved",
          "type": "bool"
        }
      ],
      "name": "ApprovalForAll",
      "type": "event"
    },
    {
      "anonymous": false,
      "inputs": [
        {
          "indexed": false,
          "internalType": "address",
          "name": "_address",
          "type": "address"
        },
        {
          "indexed": false,
          "internalType": "uint256",
          "name": "_tokenId",
          "type": "uint256"
        }
      ],
      "name": "NewMint",
      "type": "event"
    },
    {
      "anonymous": false,
      "inputs": [
        {
          "indexed": true,
          "internalType": "address",
          "name": "from",
          "type": "address"
        },
        {
          "indexed": true,
          "internalType": "address",
          "name": "to",
          "type": "address"
        },
        {
          "indexed": true,
          "internalType": "uint256",
          "name": "tokenId",
          "type": "uint256"
        }
      ],
      "name": "Transfer",
      "type": "event"
    },
    {
      "inputs": [],
      "name": "MAX_SUPPLY",
      "outputs": [
        {
          "internalType": "uint256",
          "name": "",
          "type": "uint256"
        }
      ],
      "stateMutability": "view",
      "type": "function"
    },
    {
      "inputs": [
        {
          "internalType": "address",
          "name": "to",
          "type": "address"
        },
        {
          "internalType": "uint256",
          "name": "tokenId",
          "type": "uint256"
        }
      ],
      "name": "approve",
      "outputs": [],
      "stateMutability": "nonpayable",
      "type": "function"
    },
    {
      "inputs": [
        {
          "internalType": "address",
          "name": "owner",
          "type": "address"
        }
      ],
      "name": "balanceOf",
      "outputs": [
        {
          "internalType": "uint256",
          "name": "",
          "type": "uint256"
        }
      ],
      "stateMutability": "view",
      "type": "function"
    },
    {
      "inputs": [],
      "name": "currentSupply",
      "outputs": [
        {
          "internalType": "uint256",
          "name": "",
          "type": "uint256"
        }
      ],
      "stateMutability": "view",
      "type": "function"
    },
    {
      "inputs": [
        {
          "internalType": "uint256",
          "name": "tokenId",
          "type": "uint256"
        }
      ],
      "name": "getApproved",
      "outputs": [
        {
          "internalType": "address",
          "name": "",
          "type": "address"
        }
      ],
      "stateMutability": "view",
      "type": "function"
    },
    {
      "inputs": [
        {
          "internalType": "address",
          "name": "owner",
          "type": "address"
        },
        {
          "internalType": "address",
          "name": "operator",
          "type": "address"
        }
      ],
      "name": "isApprovedForAll",
      "outputs": [
        {
          "internalType": "bool",
          "name": "",
          "type": "bool"
        }
      ],
      "stateMutability": "view",
      "type": "function"
    },
    {
      "inputs": [
        {
          "internalType": "uint256",
          "name": "_quantity",
          "type": "uint256"
        }
      ],
      "name": "mint",
      "outputs": [],
      "stateMutability": "nonpayable",
      "type": "function"
    },
    {
      "inputs": [],
      "name": "name",
      "outputs": [
        {
          "internalType": "string",
          "name": "",
          "type": "string"
        }
      ],
      "stateMutability": "view",
      "type": "function"
    },
    {
      "inputs": [
        {
          "internalType": "uint256",
          "name": "tokenId",
          "type": "uint256"
        }
      ],
      "name": "ownerOf",
      "outputs": [
        {
          "internalType": "address",
          "name": "",
          "type": "address"
        }
      ],
      "stateMutability": "view",
      "type": "function"
    },
    {
      "inputs": [
        {
          "internalType": "address",
          "name": "from",
          "type": "address"
        },
        {
          "internalType": "address",
          "name": "to",
          "type": "address"
        },
        {
          "internalType": "uint256",
          "name": "tokenId",
          "type": "uint256"
        }
      ],
      "name": "safeTransferFrom",
      "outputs": [],
      "stateMutability": "nonpayable",
      "type": "function"
    },
    {
      "inputs": [
        {
          "internalType": "address",
          "name": "from",
          "type": "address"
        },
        {
          "internalType": "address",
          "name": "to",
          "type": "address"
        },
        {
          "internalType": "uint256",
          "name": "tokenId",
          "type": "uint256"
        },
        {
          "internalType": "bytes",
          "name": "_data",
          "type": "bytes"
        }
      ],
      "name": "safeTransferFrom",
      "outputs": [],
      "stateMutability": "nonpayable",
      "type": "function"
    },
    {
      "inputs": [
        {
          "internalType": "address",
          "name": "operator",
          "type": "address"
        },
        {
          "internalType": "bool",
          "name": "approved",
          "type": "bool"
        }
      ],
      "name": "setApprovalForAll",
      "outputs": [],
      "stateMutability": "nonpayable",
      "type": "function"
    },
    {
      "inputs": [
        {
          "internalType": "bytes4",
          "name": "interfaceId",
          "type": "bytes4"
        }
      ],
      "name": "supportsInterface",
      "outputs": [
        {
          "internalType": "bool",
          "name": "",
          "type": "bool"
        }
      ],
      "stateMutability": "view",
      "type": "function"
    },
    {
      "inputs": [],
      "name": "symbol",
      "outputs": [
        {
          "internalType": "string",
          "name": "",
          "type": "string"
        }
      ],
      "stateMutability": "view",
      "type": "function"
    },
    {
      "inputs": [
        {
          "internalType": "uint256",
          "name": "_tokenId",
          "type": "uint256"
        }
      ],
      "name": "tokenURI",
      "outputs": [
        {
          "internalType": "string",
          "name": "",
          "type": "string"
        }
      ],
      "stateMutability": "view",
      "type": "function"
    },
    {
      "inputs": [
        {
          "internalType": "address",
          "name": "from",
          "type": "address"
        },
        {
          "internalType": "address",
          "name": "to",
          "type": "address"
        },
        {
          "internalType": "uint256",
          "name": "tokenId",
          "type": "uint256"
        }
      ],
      "name": "transferFrom",
      "outputs": [],
      "stateMutability": "nonpayable",
      "type": "function"
    }
  ],
  "bytecode": "0x60a9600790815560006008908155600b6101c09081526a496c6c75737472696f757360a81b6101e0526080908152610200828152671058995c9c985b9d60c21b6102205260a052610240838152661058985cda195960ca1b6102605260c05261028092835266456c6465726c7960c81b6102a05260e09290925260066102c08181526547727562627960d01b6102e052610100526005610300908152644d6573737960d81b610320526101205261034082815267141a1e5cda58d85b60c21b6103605261014052610380908152654d656c6c6f7760d01b6103a0526101605260036103c0908152624f6e6560e81b6103e0526101805261044060405261040090815267536c69707065727960c01b610420526101a0526200012590600990600a620007b5565b506040805161018081018252600661014082018181526546696572636560d01b610160840152825282518084018452600580825264053746565760dc1b602083810191909152808501929092528451808601865281815264090c2e4e6d60db1b818401528486015284518086018652818152644d6163686f60d81b81840152606085015284518086018652600c81526b456e7468757369617374696360a01b8184015260808501528451808601865292835265145d585a5b9d60d21b8383015260a084019290925283518085018552600a8082526911195d195c9b5a5b995960b21b8284015260c08501919091528451808601865260088082526710dbdb1bdcdcd85b60c21b8285015260e086019190915285518087018752938452644a7569637960d81b8484015261010085019390935284518086019095529184526710589b9bdc9b585b60c21b9084015261012082019290925262000288919081620007b5565b50604080516101808101825260096101408201908152681158dbdb9bdb5a5cdd60ba1b6101608301528152815180830183526006815265283630bcb2b960d11b602082810191909152808301919091528251808401845260088082526721bab9ba37b6b2b960c11b82840152838501919091528351808501855281815267115b195c1a185b9d60c21b818401526060840152835180850185528181526721b430b6b834b7b760c11b81840152608084015283518085018552600b8082526a50737963686564656c696360a81b8285015260a0850191909152845180860186526005808252642bb7b6b0b760d91b8286015260c086019190915285518087018752600381526226b0b760e91b8186015260e0860152855180870187529081526410da1a5b1960da1b818501526101008501528451808601909552908452674865646765686f6760c01b91840191909152610120820192909252620003ee9190600a620007b5565b50604051806102c00160405280604051806040016040528060078152602001662344374446454360c81b8152508152602001604051806040016040528060078152602001662338434230454160c81b81525081526020016040518060400160405280600781526020016608cc8c4d90d14d60ca1b8152508152602001604051806040016040528060078152602001662332314534324160c81b8152508152602001604051806040016040528060078152602001660468c82888488760cb1b8152508152602001604051806040016040528060078152602001662332384234363360c81b8152508152602001604051806040016040528060078152602001662331414243394360c81b815250815260200160405180604001604052806007815260200166119aa220a2229960c91b81525081526020016040518060400160405280600781526020016611a220a31ba09b60c91b8152508152602001604051806040016040528060078152602001660234646433330360cc1b8152508152602001604051806040016040528060078152602001662332343731413360c81b8152508152602001604051806040016040528060078152602001660468c82888488760cb1b8152508152602001604051806040016040528060078152602001662332384234363360c81b8152508152602001604051806040016040528060078152602001662331414243394360c81b815250815260200160405180604001604052806007815260200166119aa220a2229960c91b81525081526020016040518060400160405280600781526020016611a220a31ba09b60c91b8152508152602001604051806040016040528060078152602001662346313934384160c81b8152508152602001604051806040016040528060078152602001662338354331453960c81b8152508152602001604051806040016040528060078152602001662343333942443360c81b8152508152602001604051806040016040528060078152602001660466e88668672760cb1b8152508152602001604051806040016040528060078152602001662331333844373560c81b81525081526020016040518060400160405280600781526020016611a2a122a222a360c91b815250815250600c9060166200073992919062000819565b503480156200074757600080fd5b50604080518082018252600c81526b52616e646f6d20576f72647360a01b602080830191825283518085019094526002845261525760f01b90840152815191929162000796916000916200086b565b508051620007ac9060019060208401906200086b565b505050620009ba565b82805482825590600052602060002090810192821562000807579160200282015b82811115620008075782518051620007f69184916020909101906200086b565b5091602001919060010190620007d6565b5062000815929150620008f6565b5090565b82805482825590600052602060002090810192821562000807579160200282015b828111156200080757825180516200085a9184916020909101906200086b565b50916020019190600101906200083a565b828054620008799062000973565b90600052602060002090601f0160209004810192826200089d5760008555620008e8565b82601f10620008b857805160ff1916838001178555620008e8565b82800160010185558215620008e8579182015b82811115620008e8578251825591602001919060010190620008cb565b506200081592915062000917565b80821115620008155760006200090d82826200092e565b50600101620008f6565b5b8082111562000815576000815560010162000918565b5080546200093c9062000973565b6000825580601f1062000950575062000970565b601f01602090049060005260206000209081019062000970919062000917565b50565b6002810460018216806200098857607f821691505b602082108114156200099e576200099e620009a4565b50919050565b634e487b7160e01b600052602260045260246000fd5b6123f080620009ca6000396000f3fe608060405234801561001057600080fd5b50600436106101005760003560e01c806370a0823111610097578063a22cb46511610066578063a22cb465146101fc578063b88d4fde1461020f578063c87b56dd14610222578063e985e9c51461023557610100565b806370a08231146101c6578063771282f6146101d957806395d89b41146101e1578063a0712d68146101e957610100565b806323b872dd116100d357806323b872dd1461017857806332cb6b0c1461018b57806342842e0e146101a05780636352211e146101b357610100565b806301ffc9a71461010557806306fdde031461012e578063081812fc14610143578063095ea7b314610163575b600080fd5b6101186101133660046115b8565b610248565b6040516101259190611ad3565b60405180910390f35b610136610290565b6040516101259190611ae1565b6101566101513660046115f4565b610322565b6040516101259190611a70565b610176610171366004611588565b61036e565b005b610176610186366004611492565b610406565b61019361043e565b6040516101259190611bc2565b6101766101ae366004611492565b610444565b6101566101c13660046115f4565b61045f565b6101936101d436600461143a565b610494565b6101936104d8565b6101366104de565b6101766101f73660046115f4565b6104ed565b61017661020a366004611558565b6105bf565b61017661021d3660046114df565b6105d1565b6101366102303660046115f4565b610610565b610118610243366004611458565b6106d7565b60006001600160e01b031982166380ac58cd60e01b148061027957506001600160e01b03198216635b5e139f60e01b145b80610288575061028882610707565b90505b919050565b60606000805461029f90611d43565b80601f01602080910402602001604051908101604052809291908181526020018280546102cb90611d43565b80156103185780601f106102ed57610100808354040283529160200191610318565b820191906000526020600020905b8154815290600101906020018083116102fb57829003601f168201915b5050505050905090565b600061032d82610720565b6103525760405162461bcd60e51b815260040161034990611b92565b60405180910390fd5b506000908152600460205260409020546001600160a01b031690565b60006103798261045f565b9050806001600160a01b0316836001600160a01b031614156103ad5760405162461bcd60e51b815260040161034990611ba2565b806001600160a01b03166103bf61073d565b6001600160a01b031614806103db57506103db8161024361073d565b6103f75760405162461bcd60e51b815260040161034990611b52565b6104018383610741565b505050565b61041761041161073d565b826107af565b6104335760405162461bcd60e51b815260040161034990611bb2565b610401838383610834565b60075481565b610401838383604051806020016040528060008152506105d1565b6000818152600260205260408120546001600160a01b0316806102885760405162461bcd60e51b815260040161034990611b72565b60006001600160a01b0382166104bc5760405162461bcd60e51b815260040161034990611b62565b506001600160a01b031660009081526003602052604090205490565b60085481565b60606001805461029f90611d43565b600081116104fa57600080fd5b600754816105086006610967565b6105129190611c25565b61051d906001611c25565b111561052857600080fd5b60005b818110156105bb57610546336105416006610967565b61096b565b7f52277f0b4a9b555c5aa96900a13546f972bda413737ec164aac947c87eec6024336105726006610967565b604051610580929190611ab8565b60405180910390a16105926006610985565b6001600860008282546105a59190611c25565b909155506105b4905081611d9e565b905061052b565b5050565b6105bb6105ca61073d565b838361098e565b6105e26105dc61073d565b836107af565b6105fe5760405162461bcd60e51b815260040161034990611bb2565b61060a84848484610a31565b50505050565b606061061b82610720565b61062457600080fd5b600061062f83610a64565b9050600061063c82610ad2565b60608101518151602080840151604080860151905195965060009561066395949301611950565b60405160208183030381529060405290506106ae61068086610e8a565b61068983610fa5565b60405160200161069a9291906119e2565b604051602081830303815290604052610fa5565b6040516020016106be9190611a1b565b6040516020818303038152906040529350505050919050565b6001600160a01b0380831660009081526005602090815260408083209385168352929052205460ff165b92915050565b6001600160e01b031981166301ffc9a760e01b14919050565b6000908152600260205260409020546001600160a01b0316151590565b3390565b600081815260046020526040902080546001600160a01b0319166001600160a01b03841690811790915581906107768261045f565b6001600160a01b03167f8c5be1e5ebec7d5bd14f71427d1e84f3dd0314c0f7b2291e5b200ac8c7c3b92560405160405180910390a45050565b60006107ba82610720565b6107d65760405162461bcd60e51b815260040161034990611b42565b60006107e18361045f565b9050806001600160a01b0316846001600160a01b0316148061081c5750836001600160a01b031661081184610322565b6001600160a01b0316145b8061082c575061082c81856106d7565b949350505050565b826001600160a01b03166108478261045f565b6001600160a01b03161461086d5760405162461bcd60e51b815260040161034990611b02565b6001600160a01b0382166108935760405162461bcd60e51b815260040161034990611b22565b61089e838383610401565b6108a9600082610741565b6001600160a01b03831660009081526003602052604081208054600192906108d2908490611cb2565b90915550506001600160a01b0382166000908152600360205260408120805460019290610900908490611c25565b909155505060008181526002602052604080822080546001600160a01b0319166001600160a01b0386811691821790925591518493918716917fddf252ad1be2c89b69c2b068fc378daa952ba7f163c4a11628f55a4df523b3ef91a4610401838383610401565b5490565b6105bb82826040518060200160405280600081525061111a565b80546001019055565b816001600160a01b0316836001600160a01b031614156109c05760405162461bcd60e51b815260040161034990611b32565b6001600160a01b0383811660008181526005602090815260408083209487168084529490915290819020805460ff1916851515179055517f17307eab39ab6107e8899845ad3d59bd9653f200f220920489ca2b5937696c3190610a24908590611ad3565b60405180910390a3505050565b610a3c848484610834565b610a488484848461114d565b61060a5760405162461bcd60e51b815260040161034990611af2565b610a6c61135e565b6000823342604051602001610a8393929190611a39565b6040516020818303038152906040528051906020012060001c9050610aa661135e565b600182901c8152600282901c6020820152600382901c604082015260049190911c606082015292915050565b610ada61137c565b60098054835160009291610aed91611dce565b81548110610b0b57634e487b7160e01b600052603260045260246000fd5b906000526020600020018054610b2090611d43565b80601f0160208091040260200160405190810160405280929190818152602001828054610b4c90611d43565b8015610b995780601f10610b6e57610100808354040283529160200191610b99565b820191906000526020600020905b815481529060010190602001808311610b7c57829003601f168201915b505050505090506000600a808054905085600160048110610bca57634e487b7160e01b600052603260045260246000fd5b6020020151610bd99190611dce565b81548110610bf757634e487b7160e01b600052603260045260246000fd5b906000526020600020018054610c0c90611d43565b80601f0160208091040260200160405190810160405280929190818152602001828054610c3890611d43565b8015610c855780601f10610c5a57610100808354040283529160200191610c85565b820191906000526020600020905b815481529060010190602001808311610c6857829003601f168201915b505050505090506000600b808054905086600260048110610cb657634e487b7160e01b600052603260045260246000fd5b6020020151610cc59190611dce565b81548110610ce357634e487b7160e01b600052603260045260246000fd5b906000526020600020018054610cf890611d43565b80601f0160208091040260200160405190810160405280929190818152602001828054610d2490611d43565b8015610d715780601f10610d4657610100808354040283529160200191610d71565b820191906000526020600020905b815481529060010190602001808311610d5457829003601f168201915b505050505090506000600c808054905087600360048110610da257634e487b7160e01b600052603260045260246000fd5b6020020151610db19190611dce565b81548110610dcf57634e487b7160e01b600052603260045260246000fd5b906000526020600020018054610de490611d43565b80601f0160208091040260200160405190810160405280929190818152602001828054610e1090611d43565b8015610e5d5780601f10610e3257610100808354040283529160200191610e5d565b820191906000526020600020905b815481529060010190602001808311610e4057829003601f168201915b50506040805160808101825298895260208901979097525050509284019190915250606082015292915050565b606081610eaf57506040805180820190915260018152600360fc1b602082015261028b565b8160005b8115610ed95780610ec381611d9e565b9150610ed29050600a83611c53565b9150610eb3565b60008167ffffffffffffffff811115610f0257634e487b7160e01b600052604160045260246000fd5b6040519080825280601f01601f191660200182016040528015610f2c576020820181803683370190505b5090505b841561082c57610f41600183611cb2565b9150610f4e600a86611dce565b610f59906030611c25565b60f81b818381518110610f7c57634e487b7160e01b600052603260045260246000fd5b60200101906001600160f81b031916908160001a905350610f9e600a86611c53565b9450610f30565b6060815160001415610fc6575060408051602081019091526000815261028b565b600060405180606001604052806040815260200161237b6040913990506000600384516002610ff59190611c25565b610fff9190611c53565b61100a906004611c7d565b90506000611019826020611c25565b67ffffffffffffffff81111561103f57634e487b7160e01b600052604160045260246000fd5b6040519080825280601f01601f191660200182016040528015611069576020820181803683370190505b509050818152600183018586518101602084015b818310156110d5576003830192508251603f8160121c168501518253600182019150603f81600c1c168501518253600182019150603f8160061c168501518253600182019150603f811685015182535060010161107d565b6003895106600181146110ef57600281146111005761110c565b613d3d60f01b60011983015261110c565b603d60f81b6000198301525b509398975050505050505050565b6111248383611268565b611131600084848461114d565b6104015760405162461bcd60e51b815260040161034990611af2565b6000611161846001600160a01b031661134f565b1561125d57836001600160a01b031663150b7a0261117d61073d565b8786866040518563ffffffff1660e01b815260040161119f9493929190611a7e565b602060405180830381600087803b1580156111b957600080fd5b505af19250505080156111e9575060408051601f3d908101601f191682019092526111e6918101906115d6565b60015b611243573d808015611217576040519150601f19603f3d011682016040523d82523d6000602084013e61121c565b606091505b50805161123b5760405162461bcd60e51b815260040161034990611af2565b805181602001fd5b6001600160e01b031916630a85bd0160e11b14905061082c565b506001949350505050565b6001600160a01b03821661128e5760405162461bcd60e51b815260040161034990611b82565b61129781610720565b156112b45760405162461bcd60e51b815260040161034990611b12565b6112c060008383610401565b6001600160a01b03821660009081526003602052604081208054600192906112e9908490611c25565b909155505060008181526002602052604080822080546001600160a01b0319166001600160a01b03861690811790915590518392907fddf252ad1be2c89b69c2b068fc378daa952ba7f163c4a11628f55a4df523b3ef908290a46105bb60008383610401565b6001600160a01b03163b151590565b60405180608001604052806004906020820280368337509192915050565b6040518060800160405280606081526020016060815260200160608152602001606081525090565b60006113b76113b284611bec565b611bd0565b9050828152602081018484840111156113cf57600080fd5b6113da848285611d0b565b509392505050565b803561070181612348565b80356107018161235f565b803561070181612368565b805161070181612368565b600082601f83011261141f57600080fd5b813561082c8482602086016113a4565b803561070181612371565b60006020828403121561144c57600080fd5b600061082c84846113e2565b6000806040838503121561146b57600080fd5b600061147785856113e2565b9250506020611488858286016113e2565b9150509250929050565b6000806000606084860312156114a757600080fd5b60006114b386866113e2565b93505060206114c4868287016113e2565b92505060406114d58682870161142f565b9150509250925092565b600080600080608085870312156114f557600080fd5b600061150187876113e2565b9450506020611512878288016113e2565b93505060406115238782880161142f565b925050606085013567ffffffffffffffff81111561154057600080fd5b61154c8782880161140e565b91505092959194509250565b6000806040838503121561156b57600080fd5b600061157785856113e2565b9250506020611488858286016113ed565b6000806040838503121561159b57600080fd5b60006115a785856113e2565b92505060206114888582860161142f565b6000602082840312156115ca57600080fd5b600061082c84846113f8565b6000602082840312156115e857600080fd5b600061082c8484611403565b60006020828403121561160657600080fd5b600061082c848461142f565b61161b81611cdf565b82525050565b61161b61162d82611cdf565b611dbd565b61161b81611cea565b600061164682611c18565b6116508185611c1c565b9350611660818560208601611d17565b61166981611e50565b9093019392505050565b600061167e82611c18565b611688818561028b565b9350611698818560208601611d17565b9290920192915050565b60006116af603283611c1c565b91506116ba82611e60565b5060400190565b60006116ce602583611c1c565b91506116ba82611ea1565b60006116e6601c83611c1c565b91506116f182611ed5565b5060200190565b600061170560628361028b565b915061171082611efa565b5060620190565b6000611724602483611c1c565b91506116ba82611f77565b600061173c601983611c1c565b91506116f182611faa565b6000611754602c83611c1c565b91506116ba82611fcf565b600061176c600d8361028b565b91506117778261200a565b50600d0190565b600061178b60018361028b565b91506117968261201f565b5060010190565b60006117aa60188361028b565b91506117b582612028565b5060180190565b60006117c9603883611c1c565b91506116ba8261204d565b60006117e160048361028b565b91506117ec82612099565b5060040190565b6000611800602a83611c1c565b91506116ba826120a5565b6000611818602983611c1c565b91506116ba826120de565b600061183060278361028b565b915061183b82612116565b5060270190565b600061184f60028361028b565b915061185a8261214c565b5060020190565b600061186e602083611c1c565b91506116f182612156565b6000611886602c83611c1c565b91506116ba8261217b565b600061189e60278361028b565b915061183b826121b6565b60006118b6602183611c1c565b91506116ba826121ec565b60006118ce604a8361028b565b91506118d98261221c565b50604a0190565b60006118ed601d8361028b565b91506118f88261227b565b50601d0190565b600061190c60538361028b565b9150611917826122a0565b5060530190565b600061192b603183611c1c565b91506116ba82612308565b61161b81611d08565b61161b61194b82611d08565b611d08565b600061195b826116f8565b9150611966826118c1565b915061197182611823565b915061197d8287611673565b9150611988826117d4565b9150611993826118ff565b915061199f8286611673565b91506119aa8261177e565b91506119b68285611673565b91506119c18261177e565b91506119cd8284611673565b91506119d88261175f565b9695505050505050565b60006119ed8261179d565b91506119f98285611673565b9150611a0482611891565b9150611a108284611673565b915061082c82611842565b6000611a26826118e0565b9150611a328284611673565b9392505050565b6000611a45828661193f565b602082019150611a558285611621565b601482019150611a65828461193f565b506020019392505050565b602081016107018284611612565b60808101611a8c8287611612565b611a996020830186611612565b611aa66040830185611936565b81810360608301526119d8818461163b565b60408101611ac68285611612565b611a326020830184611936565b602081016107018284611632565b60208082528101611a32818461163b565b60208082528101610288816116a2565b60208082528101610288816116c1565b60208082528101610288816116d9565b6020808252810161028881611717565b602080825281016102888161172f565b6020808252810161028881611747565b60208082528101610288816117bc565b60208082528101610288816117f3565b602080825281016102888161180b565b6020808252810161028881611861565b6020808252810161028881611879565b60208082528101610288816118a9565b602080825281016102888161191e565b602081016107018284611936565b6000611bda611be6565b905061028b8282611d70565b60405190565b600067ffffffffffffffff821115611c0657611c06611e3a565b611c0f82611e50565b60200192915050565b5190565b90815260200190565b6000611c3082611d08565b9150611c3b83611d08565b92508219821115611c4e57611c4e611df8565b500190565b6000611c5e82611d08565b9150611c6983611d08565b925082611c7857611c78611e0e565b500490565b6000611c8882611d08565b9150611c9383611d08565b9250816000190483118215151615611cad57611cad611df8565b500290565b6000611cbd82611d08565b9150611cc883611d08565b925082821015611cda57611cda611df8565b500390565b600061028882611cfc565b151590565b6001600160e01b03191690565b6001600160a01b031690565b90565b82818337506000910152565b60005b83811015611d32578181015183820152602001611d1a565b8381111561060a5750506000910152565b600281046001821680611d5757607f821691505b60208210811415611d6a57611d6a611e24565b50919050565b611d7982611e50565b810181811067ffffffffffffffff82111715611d9757611d97611e3a565b6040525050565b6000611da982611d08565b915060001982141561179657611796611df8565b600061028882600061028882611e5a565b6000611dd982611d08565b9150611de483611d08565b925082611df357611df3611e0e565b500690565b634e487b7160e01b600052601160045260246000fd5b634e487b7160e01b600052601260045260246000fd5b634e487b7160e01b600052602260045260246000fd5b634e487b7160e01b600052604160045260246000fd5b601f01601f191690565b60601b90565b7f4552433732313a207472616e7366657220746f206e6f6e20455243373231526581527131b2b4bb32b91034b6b83632b6b2b73a32b960711b602090910152565b7f4552433732313a207472616e736665722066726f6d20696e636f72726563742081526437bbb732b960d91b602090910152565b7f4552433732313a20746f6b656e20616c7265616479206d696e746564000000009052565b7f3c73766720786d6c6e733d22687474703a2f2f7777772e77332e6f72672f323081527f30302f73766722207072657365727665417370656374526174696f3d22784d6960208201527f6e594d696e206d656574222076696577426f783d223020302033353020333530604082015261111f60f11b606090910152565b7f4552433732313a207472616e7366657220746f20746865207a65726f206164648152637265737360e01b602090910152565b7f4552433732313a20617070726f766520746f2063616c6c6572000000000000009052565b7f4552433732313a206f70657261746f7220717565727920666f72206e6f6e657881526b34b9ba32b73a103a37b5b2b760a11b602090910152565b6c1e17ba32bc3a1f1e17b9bb339f60991b9052565b600160fd1b9052565b7f7b226e616d65223a202252616e646f6d20576f726473202300000000000000009052565b7f4552433732313a20617070726f76652063616c6c6572206973206e6f74206f7781527f6e6572206e6f7220617070726f76656420666f7220616c6c0000000000000000602090910152565b631110179f60e11b9052565b7f4552433732313a2062616c616e636520717565727920666f7220746865207a65815269726f206164647265737360b01b602090910152565b7f4552433732313a206f776e657220717565727920666f72206e6f6e657869737481526832b73a103a37b5b2b760b91b602090910152565b7f3c726563742077696474683d223130302522206865696768743d223130302522815266103334b6361e9160c91b602090910152565b61227d60f01b9052565b7f4552433732313a206d696e7420746f20746865207a65726f20616464726573739052565b7f4552433732313a20617070726f76656420717565727920666f72206e6f6e657881526b34b9ba32b73a103a37b5b2b760a11b602090910152565b7f222c2022696d616765223a2022646174613a696d6167652f7376672b786d6c3b81526618985cd94d8d0b60ca1b602090910152565b7f4552433732313a20617070726f76616c20746f2063757272656e74206f776e658152603960f91b602090910152565b7f3c7374796c653e2e62617365207b2066696c6c3a2077686974653b20666f6e7481527f2d66616d696c793a2073657269663b20666f6e742d73697a653a20313470783b602082015269103e9e17b9ba3cb6329f60b11b604090910152565b7f646174613a6170706c69636174696f6e2f6a736f6e3b6261736536342c0000009052565b7f3c7465787420783d223530252220793d223530252220636c6173733d2262617381527f652220646f6d696e616e742d626173656c696e653d226d6964646c65222074656020820152723c3a16b0b731b437b91e9136b4b2323632911f60691b604090910152565b7f4552433732313a207472616e736665722063616c6c6572206973206e6f74206f8152701ddb995c881b9bdc88185c1c1c9bdd9959607a1b602090910152565b61235181611cdf565b811461235c57600080fd5b50565b61235181611cea565b61235181611cef565b61235181611d0856fe4142434445464748494a4b4c4d4e4f505152535455565758595a6162636465666768696a6b6c6d6e6f707172737475767778797a303132333435363738392b2fa26469706673582212206766641e66e27e419818346f0f737c336a13874638743cc55de1bf873f78b7da64736f6c63430008010033",
  "linkReferences": {},
  "deployedLinkReferences": {}
}