{
  "_format": "hh-sol-artifact-1",
  "contractName": "MyEpicNFT",
  "sourceName": "contracts/MyEpicNFT.sol",
  "abi": [
    {
      "inputs": [],
      "stateMutability": "nonpayable",
      "type": "constructor"
    },
    {
      "anonymous": false,
      "inputs": [
        {
          "indexed": true,
          "internalType": "address",
          "name": "owner",
          "type": "address"
        },
        {
          "indexed": true,
          "internalType": "address",
          "name": "approved",
          "type": "address"
        },
        {
          "indexed": true,
          "internalType": "uint256",
          "name": "tokenId",
          "type": "uint256"
        }
      ],
      "name": "Approval",
      "type": "event"
    },
    {
      "anonymous": false,
      "inputs": [
        {
          "indexed": true,
          "internalType": "address",
          "name": "owner",
          "type": "address"
        },
        {
          "indexed": true,
          "internalType": "address",
          "name": "operator",
          "type": "address"
        },
        {
          "indexed": false,
          "internalType": "bool",
          "name": "approved",
          "type": "bool"
        }
      ],
      "name": "ApprovalForAll",
      "type": "event"
    },
    {
      "anonymous": false,
      "inputs": [
        {
          "indexed": false,
          "internalType": "address",
          "name": "_address",
          "type": "address"
        },
        {
          "indexed": false,
          "internalType": "uint256",
          "name": "_tokenId",
          "type": "uint256"
        }
      ],
      "name": "NewMint",
      "type": "event"
    },
    {
      "anonymous": false,
      "inputs": [
        {
          "indexed": true,
          "internalType": "address",
          "name": "from",
          "type": "address"
        },
        {
          "indexed": true,
          "internalType": "address",
          "name": "to",
          "type": "address"
        },
        {
          "indexed": true,
          "internalType": "uint256",
          "name": "tokenId",
          "type": "uint256"
        }
      ],
      "name": "Transfer",
      "type": "event"
    },
    {
      "inputs": [
        {
          "internalType": "address",
          "name": "to",
          "type": "address"
        },
        {
          "internalType": "uint256",
          "name": "tokenId",
          "type": "uint256"
        }
      ],
      "name": "approve",
      "outputs": [],
      "stateMutability": "nonpayable",
      "type": "function"
    },
    {
      "inputs": [
        {
          "internalType": "address",
          "name": "owner",
          "type": "address"
        }
      ],
      "name": "balanceOf",
      "outputs": [
        {
          "internalType": "uint256",
          "name": "",
          "type": "uint256"
        }
      ],
      "stateMutability": "view",
      "type": "function"
    },
    {
      "inputs": [
        {
          "components": [
            {
              "internalType": "string",
              "name": "first",
              "type": "string"
            },
            {
              "internalType": "string",
              "name": "second",
              "type": "string"
            },
            {
              "internalType": "string",
              "name": "third",
              "type": "string"
            }
          ],
          "internalType": "struct MyEpicNFT.Words",
          "name": "_words",
          "type": "tuple"
        }
      ],
      "name": "createSvg",
      "outputs": [
        {
          "internalType": "string",
          "name": "",
          "type": "string"
        }
      ],
      "stateMutability": "pure",
      "type": "function"
    },
    {
      "inputs": [
        {
          "internalType": "uint256",
          "name": "tokenId",
          "type": "uint256"
        }
      ],
      "name": "getApproved",
      "outputs": [
        {
          "internalType": "address",
          "name": "",
          "type": "address"
        }
      ],
      "stateMutability": "view",
      "type": "function"
    },
    {
      "inputs": [
        {
          "internalType": "uint256",
          "name": "_tokenId",
          "type": "uint256"
        }
      ],
      "name": "getTokenURI",
      "outputs": [
        {
          "internalType": "string",
          "name": "",
          "type": "string"
        }
      ],
      "stateMutability": "view",
      "type": "function"
    },
    {
      "inputs": [
        {
          "internalType": "address",
          "name": "owner",
          "type": "address"
        },
        {
          "internalType": "address",
          "name": "operator",
          "type": "address"
        }
      ],
      "name": "isApprovedForAll",
      "outputs": [
        {
          "internalType": "bool",
          "name": "",
          "type": "bool"
        }
      ],
      "stateMutability": "view",
      "type": "function"
    },
    {
      "inputs": [],
      "name": "mint",
      "outputs": [],
      "stateMutability": "nonpayable",
      "type": "function"
    },
    {
      "inputs": [],
      "name": "name",
      "outputs": [
        {
          "internalType": "string",
          "name": "",
          "type": "string"
        }
      ],
      "stateMutability": "view",
      "type": "function"
    },
    {
      "inputs": [
        {
          "internalType": "uint256",
          "name": "tokenId",
          "type": "uint256"
        }
      ],
      "name": "ownerOf",
      "outputs": [
        {
          "internalType": "address",
          "name": "",
          "type": "address"
        }
      ],
      "stateMutability": "view",
      "type": "function"
    },
    {
      "inputs": [
        {
          "internalType": "address",
          "name": "from",
          "type": "address"
        },
        {
          "internalType": "address",
          "name": "to",
          "type": "address"
        },
        {
          "internalType": "uint256",
          "name": "tokenId",
          "type": "uint256"
        }
      ],
      "name": "safeTransferFrom",
      "outputs": [],
      "stateMutability": "nonpayable",
      "type": "function"
    },
    {
      "inputs": [
        {
          "internalType": "address",
          "name": "from",
          "type": "address"
        },
        {
          "internalType": "address",
          "name": "to",
          "type": "address"
        },
        {
          "internalType": "uint256",
          "name": "tokenId",
          "type": "uint256"
        },
        {
          "internalType": "bytes",
          "name": "_data",
          "type": "bytes"
        }
      ],
      "name": "safeTransferFrom",
      "outputs": [],
      "stateMutability": "nonpayable",
      "type": "function"
    },
    {
      "inputs": [
        {
          "internalType": "address",
          "name": "operator",
          "type": "address"
        },
        {
          "internalType": "bool",
          "name": "approved",
          "type": "bool"
        }
      ],
      "name": "setApprovalForAll",
      "outputs": [],
      "stateMutability": "nonpayable",
      "type": "function"
    },
    {
      "inputs": [
        {
          "internalType": "bytes4",
          "name": "interfaceId",
          "type": "bytes4"
        }
      ],
      "name": "supportsInterface",
      "outputs": [
        {
          "internalType": "bool",
          "name": "",
          "type": "bool"
        }
      ],
      "stateMutability": "view",
      "type": "function"
    },
    {
      "inputs": [],
      "name": "symbol",
      "outputs": [
        {
          "internalType": "string",
          "name": "",
          "type": "string"
        }
      ],
      "stateMutability": "view",
      "type": "function"
    },
    {
      "inputs": [
        {
          "internalType": "uint256",
          "name": "tokenId",
          "type": "uint256"
        }
      ],
      "name": "tokenURI",
      "outputs": [
        {
          "internalType": "string",
          "name": "",
          "type": "string"
        }
      ],
      "stateMutability": "view",
      "type": "function"
    },
    {
      "inputs": [
        {
          "internalType": "address",
          "name": "from",
          "type": "address"
        },
        {
          "internalType": "address",
          "name": "to",
          "type": "address"
        },
        {
          "internalType": "uint256",
          "name": "tokenId",
          "type": "uint256"
        }
      ],
      "name": "transferFrom",
      "outputs": [],
      "stateMutability": "nonpayable",
      "type": "function"
    }
  ],
  "bytecode": "0x60806040526040518061014001604052806040518060400160405280600b81526020017f496c6c75737472696f757300000000000000000000000000000000000000000081525081526020016040518060400160405280600881526020017f4162657272616e7400000000000000000000000000000000000000000000000081525081526020016040518060400160405280600781526020017f416261736865640000000000000000000000000000000000000000000000000081525081526020016040518060400160405280600781526020017f456c6465726c790000000000000000000000000000000000000000000000000081525081526020016040518060400160405280600681526020017f477275626279000000000000000000000000000000000000000000000000000081525081526020016040518060400160405280600581526020017f4d6573737900000000000000000000000000000000000000000000000000000081525081526020016040518060400160405280600881526020017f506879736963616c00000000000000000000000000000000000000000000000081525081526020016040518060400160405280600681526020017f4d656c6c6f77000000000000000000000000000000000000000000000000000081525081526020016040518060400160405280600381526020017f4f6e65000000000000000000000000000000000000000000000000000000000081525081526020016040518060400160405280600881526020017f536c697070657279000000000000000000000000000000000000000000000000815250815250600990600a6200026e929190620007f9565b506040518061014001604052806040518060400160405280600681526020017f466965726365000000000000000000000000000000000000000000000000000081525081526020016040518060400160405280600581526020017f537465657000000000000000000000000000000000000000000000000000000081525081526020016040518060400160405280600581526020017f486172736800000000000000000000000000000000000000000000000000000081525081526020016040518060400160405280600581526020017f4d6163686f00000000000000000000000000000000000000000000000000000081525081526020016040518060400160405280600c81526020017f456e74687573696173746963000000000000000000000000000000000000000081525081526020016040518060400160405280600681526020017f517561696e74000000000000000000000000000000000000000000000000000081525081526020016040518060400160405280600a81526020017f44657465726d696e65640000000000000000000000000000000000000000000081525081526020016040518060400160405280600881526020017f436f6c6f7373616c00000000000000000000000000000000000000000000000081525081526020016040518060400160405280600581526020017f4a7569637900000000000000000000000000000000000000000000000000000081525081526020016040518060400160405280600881526020017f41626e6f726d616c000000000000000000000000000000000000000000000000815250815250600a90600a620004d9929190620007f9565b506040518061014001604052806040518060400160405280600981526020017f45636f6e6f6d697374000000000000000000000000000000000000000000000081525081526020016040518060400160405280600681526020017f506c61796572000000000000000000000000000000000000000000000000000081525081526020016040518060400160405280600881526020017f437573746f6d657200000000000000000000000000000000000000000000000081525081526020016040518060400160405280600881526020017f456c657068616e7400000000000000000000000000000000000000000000000081525081526020016040518060400160405280600881526020017f4368616d70696f6e00000000000000000000000000000000000000000000000081525081526020016040518060400160405280600b81526020017f50737963686564656c696300000000000000000000000000000000000000000081525081526020016040518060400160405280600581526020017f576f6d616e00000000000000000000000000000000000000000000000000000081525081526020016040518060400160405280600381526020017f4d616e000000000000000000000000000000000000000000000000000000000081525081526020016040518060400160405280600581526020017f4368696c6400000000000000000000000000000000000000000000000000000081525081526020016040518060400160405280600881526020017f4865646765686f67000000000000000000000000000000000000000000000000815250815250600b90600a62000744929190620007f9565b503480156200075257600080fd5b506040518060400160405280600c81526020017f52616e646f6d20576f72647300000000000000000000000000000000000000008152506040518060400160405280600281526020017f52570000000000000000000000000000000000000000000000000000000000008152508160009080519060200190620007d792919062000860565b508060019080519060200190620007f092919062000860565b505050620009e3565b8280548282559060005260206000209081019282156200084d579160200282015b828111156200084c5782518290805190602001906200083b92919062000860565b50916020019190600101906200081a565b5b5090506200085c9190620008f1565b5090565b8280546200086e906200097e565b90600052602060002090601f016020900481019282620008925760008555620008de565b82601f10620008ad57805160ff1916838001178555620008de565b82800160010185558215620008de579182015b82811115620008dd578251825591602001919060010190620008c0565b5b509050620008ed919062000919565b5090565b5b808211156200091557600081816200090b919062000938565b50600101620008f2565b5090565b5b80821115620009345760008160009055506001016200091a565b5090565b50805462000946906200097e565b6000825580601f106200095a57506200097b565b601f0160209004906000526020600020908101906200097a919062000919565b5b50565b600060028204905060018216806200099757607f821691505b60208210811415620009ae57620009ad620009b4565b5b50919050565b7f4e487b7100000000000000000000000000000000000000000000000000000000600052602260045260246000fd5b613cd880620009f36000396000f3fe608060405234801561001057600080fd5b50600436106101005760003560e01c80636352211e11610097578063a22cb46511610066578063a22cb465146102bf578063b88d4fde146102db578063c87b56dd146102f7578063e985e9c51461032757610100565b80636352211e1461021157806370a082311461024157806395d89b4114610271578063a03575181461028f57610100565b80631249c58b116100d35780631249c58b1461019f57806323b872dd146101a95780633bb3a24d146101c557806342842e0e146101f557610100565b806301ffc9a71461010557806306fdde0314610135578063081812fc14610153578063095ea7b314610183575b600080fd5b61011f600480360381019061011a9190612645565b610357565b60405161012c9190612d63565b60405180910390f35b61013d610439565b60405161014a9190612d7e565b60405180910390f35b61016d600480360381019061016891906126d8565b6104cb565b60405161017a9190612cd3565b60405180910390f35b61019d60048036038101906101989190612609565b610550565b005b6101a7610668565b005b6101c360048036038101906101be9190612503565b610771565b005b6101df60048036038101906101da91906126d8565b6107d1565b6040516101ec9190612d7e565b60405180910390f35b61020f600480360381019061020a9190612503565b610a14565b005b61022b600480360381019061022691906126d8565b610a34565b6040516102389190612cd3565b60405180910390f35b61025b6004803603810190610256919061249e565b610ae6565b6040516102689190612fde565b60405180910390f35b610279610b9e565b6040516102869190612d7e565b60405180910390f35b6102a960048036038101906102a49190612697565b610c30565b6040516102b69190612d7e565b60405180910390f35b6102d960048036038101906102d491906125cd565b610c69565b005b6102f560048036038101906102f09190612552565b610c7f565b005b610311600480360381019061030c91906126d8565b610ce1565b60405161031e9190612d7e565b60405180910390f35b610341600480360381019061033c91906124c7565b610e33565b60405161034e9190612d63565b60405180910390f35b60007f80ac58cd000000000000000000000000000000000000000000000000000000007bffffffffffffffffffffffffffffffffffffffffffffffffffffffff1916827bffffffffffffffffffffffffffffffffffffffffffffffffffffffff1916148061042257507f5b5e139f000000000000000000000000000000000000000000000000000000007bffffffffffffffffffffffffffffffffffffffffffffffffffffffff1916827bffffffffffffffffffffffffffffffffffffffffffffffffffffffff1916145b80610432575061043182610ec7565b5b9050919050565b6060600080546104489061328e565b80601f01602080910402602001604051908101604052809291908181526020018280546104749061328e565b80156104c15780601f10610496576101008083540402835291602001916104c1565b820191906000526020600020905b8154815290600101906020018083116104a457829003601f168201915b5050505050905090565b60006104d682610f31565b610515576040517f08c379a000000000000000000000000000000000000000000000000000000000815260040161050c90612f5e565b60405180910390fd5b6004600083815260200190815260200160002060009054906101000a900473ffffffffffffffffffffffffffffffffffffffff169050919050565b600061055b82610a34565b90508073ffffffffffffffffffffffffffffffffffffffff168373ffffffffffffffffffffffffffffffffffffffff1614156105cc576040517f08c379a00000000000000000000000000000000000000000000000000000000081526004016105c390612f9e565b60405180910390fd5b8073ffffffffffffffffffffffffffffffffffffffff166105eb610f9d565b73ffffffffffffffffffffffffffffffffffffffff16148061061a575061061981610614610f9d565b610e33565b5b610659576040517f08c379a000000000000000000000000000000000000000000000000000000000815260040161065090612e9e565b60405180910390fd5b6106638383610fa5565b505050565b6000610674600761105e565b905061067f8161106c565b6008600083815260200190815260200160002060008201518160000190805190602001906106ae9291906121f9565b5060208201518160010190805190602001906106cb9291906121f9565b5060408201518160020190805190602001906106e89291906121f9565b509050506106f63382611378565b61070881610703836107d1565b611396565b610712600761140a565b610735604051806060016040528060258152602001613c3e602591398233611420565b7f52277f0b4a9b555c5aa96900a13546f972bda413737ec164aac947c87eec60243382604051610766929190612d3a565b60405180910390a150565b61078261077c610f9d565b826114bf565b6107c1576040517f08c379a00000000000000000000000000000000000000000000000000000000081526004016107b890612fbe565b60405180910390fd5b6107cc83838361159d565b505050565b60606000600860008481526020019081526020016000206040518060600160405290816000820180546108039061328e565b80601f016020809104026020016040519081016040528092919081815260200182805461082f9061328e565b801561087c5780601f106108515761010080835404028352916020019161087c565b820191906000526020600020905b81548152906001019060200180831161085f57829003601f168201915b505050505081526020016001820180546108959061328e565b80601f01602080910402602001604051908101604052809291908181526020018280546108c19061328e565b801561090e5780601f106108e35761010080835404028352916020019161090e565b820191906000526020600020905b8154815290600101906020018083116108f157829003601f168201915b505050505081526020016002820180546109279061328e565b80601f01602080910402602001604051908101604052809291908181526020018280546109539061328e565b80156109a05780601f10610975576101008083540402835291602001916109a0565b820191906000526020600020905b81548152906001019060200180831161098357829003601f168201915b50505050508152505090506109ed6109b784611804565b6109c86109c384610c30565b6119b1565b6040516020016109d9929190612c2f565b6040516020818303038152906040526119b1565b6040516020016109fd9190612c74565b604051602081830303815290604052915050919050565b610a2f83838360405180602001604052806000815250610c7f565b505050565b6000806002600084815260200190815260200160002060009054906101000a900473ffffffffffffffffffffffffffffffffffffffff169050600073ffffffffffffffffffffffffffffffffffffffff168173ffffffffffffffffffffffffffffffffffffffff161415610add576040517f08c379a0000000000000000000000000000000000000000000000000000000008152600401610ad490612ede565b60405180910390fd5b80915050919050565b60008073ffffffffffffffffffffffffffffffffffffffff168273ffffffffffffffffffffffffffffffffffffffff161415610b57576040517f08c379a0000000000000000000000000000000000000000000000000000000008152600401610b4e90612ebe565b60405180910390fd5b600360008373ffffffffffffffffffffffffffffffffffffffff1673ffffffffffffffffffffffffffffffffffffffff168152602001908152602001600020549050919050565b606060018054610bad9061328e565b80601f0160208091040260200160405190810160405280929190818152602001828054610bd99061328e565b8015610c265780601f10610bfb57610100808354040283529160200191610c26565b820191906000526020600020905b815481529060010190602001808311610c0957829003601f168201915b5050505050905090565b6060816000015182602001518360400151604051602001610c5393929190612bb1565b6040516020818303038152906040529050919050565b610c7b610c74610f9d565b8383611b50565b5050565b610c90610c8a610f9d565b836114bf565b610ccf576040517f08c379a0000000000000000000000000000000000000000000000000000000008152600401610cc690612fbe565b60405180910390fd5b610cdb84848484611cbd565b50505050565b6060610cec82610f31565b610d2b576040517f08c379a0000000000000000000000000000000000000000000000000000000008152600401610d2290612f3e565b60405180910390fd5b6000600660008481526020019081526020016000208054610d4b9061328e565b80601f0160208091040260200160405190810160405280929190818152602001828054610d779061328e565b8015610dc45780601f10610d9957610100808354040283529160200191610dc4565b820191906000526020600020905b815481529060010190602001808311610da757829003601f168201915b505050505090506000610dd5611d19565b9050600081511415610deb578192505050610e2e565b600082511115610e20578082604051602001610e08929190612b8d565b60405160208183030381529060405292505050610e2e565b610e2984611d30565b925050505b919050565b6000600560008473ffffffffffffffffffffffffffffffffffffffff1673ffffffffffffffffffffffffffffffffffffffff16815260200190815260200160002060008373ffffffffffffffffffffffffffffffffffffffff1673ffffffffffffffffffffffffffffffffffffffff16815260200190815260200160002060009054906101000a900460ff16905092915050565b60007f01ffc9a7000000000000000000000000000000000000000000000000000000007bffffffffffffffffffffffffffffffffffffffffffffffffffffffff1916827bffffffffffffffffffffffffffffffffffffffffffffffffffffffff1916149050919050565b60008073ffffffffffffffffffffffffffffffffffffffff166002600084815260200190815260200160002060009054906101000a900473ffffffffffffffffffffffffffffffffffffffff1673ffffffffffffffffffffffffffffffffffffffff1614159050919050565b600033905090565b816004600083815260200190815260200160002060006101000a81548173ffffffffffffffffffffffffffffffffffffffff021916908373ffffffffffffffffffffffffffffffffffffffff160217905550808273ffffffffffffffffffffffffffffffffffffffff1661101883610a34565b73ffffffffffffffffffffffffffffffffffffffff167f8c5be1e5ebec7d5bd14f71427d1e84f3dd0314c0f7b2291e5b200ac8c7c3b92560405160405180910390a45050565b600081600001549050919050565b61107461227f565b600082334260405160200161108b93929190612c96565b6040516020818303038152906040528051906020012060001c9050600060098080549050600184901c6110be9190613368565b815481106110f5577f4e487b7100000000000000000000000000000000000000000000000000000000600052603260045260246000fd5b90600052602060002001805461110a9061328e565b80601f01602080910402602001604051908101604052809291908181526020018280546111369061328e565b80156111835780601f1061115857610100808354040283529160200191611183565b820191906000526020600020905b81548152906001019060200180831161116657829003601f168201915b505050505090506000600a8080549050600285901c6111a29190613368565b815481106111d9577f4e487b7100000000000000000000000000000000000000000000000000000000600052603260045260246000fd5b9060005260206000200180546111ee9061328e565b80601f016020809104026020016040519081016040528092919081815260200182805461121a9061328e565b80156112675780601f1061123c57610100808354040283529160200191611267565b820191906000526020600020905b81548152906001019060200180831161124a57829003601f168201915b505050505090506000600b8080549050600386901c6112869190613368565b815481106112bd577f4e487b7100000000000000000000000000000000000000000000000000000000600052603260045260246000fd5b9060005260206000200180546112d29061328e565b80601f01602080910402602001604051908101604052809291908181526020018280546112fe9061328e565b801561134b5780601f106113205761010080835404028352916020019161134b565b820191906000526020600020905b81548152906001019060200180831161132e57829003601f168201915b50505050509050604051806060016040528084815260200183815260200182815250945050505050919050565b611392828260405180602001604052806000815250611dd7565b5050565b61139f82610f31565b6113de576040517f08c379a00000000000000000000000000000000000000000000000000000000081526004016113d590612efe565b60405180910390fd5b806006600084815260200190815260200160002090805190602001906114059291906121f9565b505050565b6001816000016000828254019250508190555050565b6114ba83838360405160240161143893929190612da0565b6040516020818303038152906040527fe3849f79000000000000000000000000000000000000000000000000000000007bffffffffffffffffffffffffffffffffffffffffffffffffffffffff19166020820180517bffffffffffffffffffffffffffffffffffffffffffffffffffffffff8381831617835250505050611e32565b505050565b60006114ca82610f31565b611509576040517f08c379a000000000000000000000000000000000000000000000000000000000815260040161150090612e7e565b60405180910390fd5b600061151483610a34565b90508073ffffffffffffffffffffffffffffffffffffffff168473ffffffffffffffffffffffffffffffffffffffff16148061158357508373ffffffffffffffffffffffffffffffffffffffff1661156b846104cb565b73ffffffffffffffffffffffffffffffffffffffff16145b8061159457506115938185610e33565b5b91505092915050565b8273ffffffffffffffffffffffffffffffffffffffff166115bd82610a34565b73ffffffffffffffffffffffffffffffffffffffff1614611613576040517f08c379a000000000000000000000000000000000000000000000000000000000815260040161160a90612dfe565b60405180910390fd5b600073ffffffffffffffffffffffffffffffffffffffff168273ffffffffffffffffffffffffffffffffffffffff161415611683576040517f08c379a000000000000000000000000000000000000000000000000000000000815260040161167a90612e3e565b60405180910390fd5b61168e838383611e5b565b611699600082610fa5565b6001600360008573ffffffffffffffffffffffffffffffffffffffff1673ffffffffffffffffffffffffffffffffffffffff16815260200190815260200160002060008282546116e991906131a4565b925050819055506001600360008473ffffffffffffffffffffffffffffffffffffffff1673ffffffffffffffffffffffffffffffffffffffff168152602001908152602001600020600082825461174091906130c3565b92505081905550816002600083815260200190815260200160002060006101000a81548173ffffffffffffffffffffffffffffffffffffffff021916908373ffffffffffffffffffffffffffffffffffffffff160217905550808273ffffffffffffffffffffffffffffffffffffffff168473ffffffffffffffffffffffffffffffffffffffff167fddf252ad1be2c89b69c2b068fc378daa952ba7f163c4a11628f55a4df523b3ef60405160405180910390a46117ff838383611e60565b505050565b6060600082141561184c576040518060400160405280600181526020017f300000000000000000000000000000000000000000000000000000000000000081525090506119ac565b600082905060005b6000821461187e578080611867906132f1565b915050600a826118779190613119565b9150611854565b60008167ffffffffffffffff8111156118c0577f4e487b7100000000000000000000000000000000000000000000000000000000600052604160045260246000fd5b6040519080825280601f01601f1916602001820160405280156118f25781602001600182028036833780820191505090505b5090505b600085146119a55760018261190b91906131a4565b9150600a8561191a9190613368565b603061192691906130c3565b60f81b818381518110611962577f4e487b7100000000000000000000000000000000000000000000000000000000600052603260045260246000fd5b60200101907effffffffffffffffffffffffffffffffffffffffffffffffffffffffffffff1916908160001a905350600a8561199e9190613119565b94506118f6565b8093505050505b919050565b60606000825114156119d457604051806020016040528060008152509050611b4b565b6000604051806060016040528060408152602001613c636040913990506000600360028551611a0391906130c3565b611a0d9190613119565b6004611a19919061314a565b90506000602082611a2a91906130c3565b67ffffffffffffffff811115611a69577f4e487b7100000000000000000000000000000000000000000000000000000000600052604160045260246000fd5b6040519080825280601f01601f191660200182016040528015611a9b5781602001600182028036833780820191505090505b509050818152600183018586518101602084015b81831015611b0a576003830192508251603f8160121c168501518253600182019150603f81600c1c168501518253600182019150603f8160061c168501518253600182019150603f8116850151825360018201915050611aaf565b600389510660018114611b245760028114611b3457611b3f565b613d3d60f01b6002830352611b3f565b603d60f81b60018303525b50505050508093505050505b919050565b8173ffffffffffffffffffffffffffffffffffffffff168373ffffffffffffffffffffffffffffffffffffffff161415611bbf576040517f08c379a0000000000000000000000000000000000000000000000000000000008152600401611bb690612e5e565b60405180910390fd5b80600560008573ffffffffffffffffffffffffffffffffffffffff1673ffffffffffffffffffffffffffffffffffffffff16815260200190815260200160002060008473ffffffffffffffffffffffffffffffffffffffff1673ffffffffffffffffffffffffffffffffffffffff16815260200190815260200160002060006101000a81548160ff0219169083151502179055508173ffffffffffffffffffffffffffffffffffffffff168373ffffffffffffffffffffffffffffffffffffffff167f17307eab39ab6107e8899845ad3d59bd9653f200f220920489ca2b5937696c3183604051611cb09190612d63565b60405180910390a3505050565b611cc884848461159d565b611cd484848484611e65565b611d13576040517f08c379a0000000000000000000000000000000000000000000000000000000008152600401611d0a90612dde565b60405180910390fd5b50505050565b606060405180602001604052806000815250905090565b6060611d3b82610f31565b611d7a576040517f08c379a0000000000000000000000000000000000000000000000000000000008152600401611d7190612f7e565b60405180910390fd5b6000611d84611d19565b90506000815111611da45760405180602001604052806000815250611dcf565b80611dae84611804565b604051602001611dbf929190612b8d565b6040516020818303038152906040525b915050919050565b611de18383611ffc565b611dee6000848484611e65565b611e2d576040517f08c379a0000000000000000000000000000000000000000000000000000000008152600401611e2490612dde565b60405180910390fd5b505050565b60008151905060006a636f6e736f6c652e6c6f679050602083016000808483855afa5050505050565b505050565b505050565b6000611e868473ffffffffffffffffffffffffffffffffffffffff166121d6565b15611fef578373ffffffffffffffffffffffffffffffffffffffff1663150b7a02611eaf610f9d565b8786866040518563ffffffff1660e01b8152600401611ed19493929190612cee565b602060405180830381600087803b158015611eeb57600080fd5b505af1925050508015611f1c57506040513d601f19601f82011682018060405250810190611f19919061266e565b60015b611f9f573d8060008114611f4c576040519150601f19603f3d011682016040523d82523d6000602084013e611f51565b606091505b50600081511415611f97576040517f08c379a0000000000000000000000000000000000000000000000000000000008152600401611f8e90612dde565b60405180910390fd5b805181602001fd5b63150b7a0260e01b7bffffffffffffffffffffffffffffffffffffffffffffffffffffffff1916817bffffffffffffffffffffffffffffffffffffffffffffffffffffffff191614915050611ff4565b600190505b949350505050565b600073ffffffffffffffffffffffffffffffffffffffff168273ffffffffffffffffffffffffffffffffffffffff16141561206c576040517f08c379a000000000000000000000000000000000000000000000000000000000815260040161206390612f1e565b60405180910390fd5b61207581610f31565b156120b5576040517f08c379a00000000000000000000000000000000000000000000000000000000081526004016120ac90612e1e565b60405180910390fd5b6120c160008383611e5b565b6001600360008473ffffffffffffffffffffffffffffffffffffffff1673ffffffffffffffffffffffffffffffffffffffff168152602001908152602001600020600082825461211191906130c3565b92505081905550816002600083815260200190815260200160002060006101000a81548173ffffffffffffffffffffffffffffffffffffffff021916908373ffffffffffffffffffffffffffffffffffffffff160217905550808273ffffffffffffffffffffffffffffffffffffffff16600073ffffffffffffffffffffffffffffffffffffffff167fddf252ad1be2c89b69c2b068fc378daa952ba7f163c4a11628f55a4df523b3ef60405160405180910390a46121d260008383611e60565b5050565b6000808273ffffffffffffffffffffffffffffffffffffffff163b119050919050565b8280546122059061328e565b90600052602060002090601f016020900481019282612227576000855561226e565b82601f1061224057805160ff191683800117855561226e565b8280016001018555821561226e579182015b8281111561226d578251825591602001919060010190612252565b5b50905061227b91906122a0565b5090565b60405180606001604052806060815260200160608152602001606081525090565b5b808211156122b95760008160009055506001016122a1565b5090565b60006122d06122cb8461301e565b612ff9565b9050828152602081018484840111156122e857600080fd5b6122f384828561324c565b509392505050565b600061230e6123098461304f565b612ff9565b90508281526020810184848401111561232657600080fd5b61233184828561324c565b509392505050565b60008135905061234881613be1565b92915050565b60008135905061235d81613bf8565b92915050565b60008135905061237281613c0f565b92915050565b60008151905061238781613c0f565b92915050565b600082601f83011261239e57600080fd5b81356123ae8482602086016122bd565b91505092915050565b600082601f8301126123c857600080fd5b81356123d88482602086016122fb565b91505092915050565b6000606082840312156123f357600080fd5b6123fd6060612ff9565b9050600082013567ffffffffffffffff81111561241957600080fd5b612425848285016123b7565b600083015250602082013567ffffffffffffffff81111561244557600080fd5b612451848285016123b7565b602083015250604082013567ffffffffffffffff81111561247157600080fd5b61247d848285016123b7565b60408301525092915050565b60008135905061249881613c26565b92915050565b6000602082840312156124b057600080fd5b60006124be84828501612339565b91505092915050565b600080604083850312156124da57600080fd5b60006124e885828601612339565b92505060206124f985828601612339565b9150509250929050565b60008060006060848603121561251857600080fd5b600061252686828701612339565b935050602061253786828701612339565b925050604061254886828701612489565b9150509250925092565b6000806000806080858703121561256857600080fd5b600061257687828801612339565b945050602061258787828801612339565b935050604061259887828801612489565b925050606085013567ffffffffffffffff8111156125b557600080fd5b6125c18782880161238d565b91505092959194509250565b600080604083850312156125e057600080fd5b60006125ee85828601612339565b92505060206125ff8582860161234e565b9150509250929050565b6000806040838503121561261c57600080fd5b600061262a85828601612339565b925050602061263b85828601612489565b9150509250929050565b60006020828403121561265757600080fd5b600061266584828501612363565b91505092915050565b60006020828403121561268057600080fd5b600061268e84828501612378565b91505092915050565b6000602082840312156126a957600080fd5b600082013567ffffffffffffffff8111156126c357600080fd5b6126cf848285016123e1565b91505092915050565b6000602082840312156126ea57600080fd5b60006126f884828501612489565b91505092915050565b61270a816131d8565b82525050565b61272161271c826131d8565b61333a565b82525050565b612730816131ea565b82525050565b600061274182613080565b61274b8185613096565b935061275b81856020860161325b565b61276481613455565b840191505092915050565b600061277a8261308b565b61278481856130a7565b935061279481856020860161325b565b61279d81613455565b840191505092915050565b60006127b38261308b565b6127bd81856130b8565b93506127cd81856020860161325b565b80840191505092915050565b60006127e66032836130a7565b91506127f182613473565b604082019050919050565b60006128096025836130a7565b9150612814826134c2565b604082019050919050565b600061282c601c836130a7565b915061283782613511565b602082019050919050565b600061284f6030836130b8565b915061285a8261353a565b603082019050919050565b60006128726062836130b8565b915061287d82613589565b606282019050919050565b60006128956024836130a7565b91506128a082613624565b604082019050919050565b60006128b86019836130a7565b91506128c382613673565b602082019050919050565b60006128db602c836130a7565b91506128e68261369c565b604082019050919050565b60006128fe600d836130b8565b9150612909826136eb565b600d82019050919050565b60006129216001836130b8565b915061292c82613714565b600182019050919050565b60006129446018836130b8565b915061294f8261373d565b601882019050919050565b60006129676038836130a7565b915061297282613766565b604082019050919050565b600061298a602a836130a7565b9150612995826137b5565b604082019050919050565b60006129ad6029836130a7565b91506129b882613804565b604082019050919050565b60006129d0602e836130a7565b91506129db82613853565b604082019050919050565b60006129f36002836130b8565b91506129fe826138a2565b600282019050919050565b6000612a166020836130a7565b9150612a21826138cb565b602082019050919050565b6000612a396031836130a7565b9150612a44826138f4565b604082019050919050565b6000612a5c602c836130a7565b9150612a6782613943565b604082019050919050565b6000612a7f602f836130a7565b9150612a8a82613992565b604082019050919050565b6000612aa26027836130b8565b9150612aad826139e1565b602782019050919050565b6000612ac56021836130a7565b9150612ad082613a30565b604082019050919050565b6000612ae8604a836130b8565b9150612af382613a7f565b604a82019050919050565b6000612b0b601d836130b8565b9150612b1682613af4565b601d82019050919050565b6000612b2e6053836130b8565b9150612b3982613b1d565b605382019050919050565b6000612b516031836130a7565b9150612b5c82613b92565b604082019050919050565b612b7081613242565b82525050565b612b87612b8282613242565b61335e565b82525050565b6000612b9982856127a8565b9150612ba582846127a8565b91508190509392505050565b6000612bbc82612865565b9150612bc782612adb565b9150612bd282612842565b9150612bdd82612b21565b9150612be982866127a8565b9150612bf482612914565b9150612c0082856127a8565b9150612c0b82612914565b9150612c1782846127a8565b9150612c22826128f1565b9150819050949350505050565b6000612c3a82612937565b9150612c4682856127a8565b9150612c5182612a95565b9150612c5d82846127a8565b9150612c68826129e6565b91508190509392505050565b6000612c7f82612afe565b9150612c8b82846127a8565b915081905092915050565b6000612ca28286612b76565b602082019150612cb28285612710565b601482019150612cc28284612b76565b602082019150819050949350505050565b6000602082019050612ce86000830184612701565b92915050565b6000608082019050612d036000830187612701565b612d106020830186612701565b612d1d6040830185612b67565b8181036060830152612d2f8184612736565b905095945050505050565b6000604082019050612d4f6000830185612701565b612d5c6020830184612b67565b9392505050565b6000602082019050612d786000830184612727565b92915050565b60006020820190508181036000830152612d98818461276f565b905092915050565b60006060820190508181036000830152612dba818661276f565b9050612dc96020830185612b67565b612dd66040830184612701565b949350505050565b60006020820190508181036000830152612df7816127d9565b9050919050565b60006020820190508181036000830152612e17816127fc565b9050919050565b60006020820190508181036000830152612e378161281f565b9050919050565b60006020820190508181036000830152612e5781612888565b9050919050565b60006020820190508181036000830152612e77816128ab565b9050919050565b60006020820190508181036000830152612e97816128ce565b9050919050565b60006020820190508181036000830152612eb78161295a565b9050919050565b60006020820190508181036000830152612ed78161297d565b9050919050565b60006020820190508181036000830152612ef7816129a0565b9050919050565b60006020820190508181036000830152612f17816129c3565b9050919050565b60006020820190508181036000830152612f3781612a09565b9050919050565b60006020820190508181036000830152612f5781612a2c565b9050919050565b60006020820190508181036000830152612f7781612a4f565b9050919050565b60006020820190508181036000830152612f9781612a72565b9050919050565b60006020820190508181036000830152612fb781612ab8565b9050919050565b60006020820190508181036000830152612fd781612b44565b9050919050565b6000602082019050612ff36000830184612b67565b92915050565b6000613003613014565b905061300f82826132c0565b919050565b6000604051905090565b600067ffffffffffffffff82111561303957613038613426565b5b61304282613455565b9050602081019050919050565b600067ffffffffffffffff82111561306a57613069613426565b5b61307382613455565b9050602081019050919050565b600081519050919050565b600081519050919050565b600082825260208201905092915050565b600082825260208201905092915050565b600081905092915050565b60006130ce82613242565b91506130d983613242565b9250827fffffffffffffffffffffffffffffffffffffffffffffffffffffffffffffffff0382111561310e5761310d613399565b5b828201905092915050565b600061312482613242565b915061312f83613242565b92508261313f5761313e6133c8565b5b828204905092915050565b600061315582613242565b915061316083613242565b9250817fffffffffffffffffffffffffffffffffffffffffffffffffffffffffffffffff048311821515161561319957613198613399565b5b828202905092915050565b60006131af82613242565b91506131ba83613242565b9250828210156131cd576131cc613399565b5b828203905092915050565b60006131e382613222565b9050919050565b60008115159050919050565b60007fffffffff0000000000000000000000000000000000000000000000000000000082169050919050565b600073ffffffffffffffffffffffffffffffffffffffff82169050919050565b6000819050919050565b82818337600083830152505050565b60005b8381101561327957808201518184015260208101905061325e565b83811115613288576000848401525b50505050565b600060028204905060018216806132a657607f821691505b602082108114156132ba576132b96133f7565b5b50919050565b6132c982613455565b810181811067ffffffffffffffff821117156132e8576132e7613426565b5b80604052505050565b60006132fc82613242565b91507fffffffffffffffffffffffffffffffffffffffffffffffffffffffffffffffff82141561332f5761332e613399565b5b600182019050919050565b60006133458261334c565b9050919050565b600061335782613466565b9050919050565b6000819050919050565b600061337382613242565b915061337e83613242565b92508261338e5761338d6133c8565b5b828206905092915050565b7f4e487b7100000000000000000000000000000000000000000000000000000000600052601160045260246000fd5b7f4e487b7100000000000000000000000000000000000000000000000000000000600052601260045260246000fd5b7f4e487b7100000000000000000000000000000000000000000000000000000000600052602260045260246000fd5b7f4e487b7100000000000000000000000000000000000000000000000000000000600052604160045260246000fd5b6000601f19601f8301169050919050565b60008160601b9050919050565b7f4552433732313a207472616e7366657220746f206e6f6e20455243373231526560008201527f63656976657220696d706c656d656e7465720000000000000000000000000000602082015250565b7f4552433732313a207472616e736665722066726f6d20696e636f72726563742060008201527f6f776e6572000000000000000000000000000000000000000000000000000000602082015250565b7f4552433732313a20746f6b656e20616c7265616479206d696e74656400000000600082015250565b7f3c726563742077696474683d223130302522206865696768743d22313030252260008201527f2066696c6c3d22626c61636b22202f3e00000000000000000000000000000000602082015250565b7f3c73766720786d6c6e733d22687474703a2f2f7777772e77332e6f72672f323060008201527f30302f73766722207072657365727665417370656374526174696f3d22784d6960208201527f6e594d696e206d656574222076696577426f783d22302030203335302033353060408201527f223e000000000000000000000000000000000000000000000000000000000000606082015250565b7f4552433732313a207472616e7366657220746f20746865207a65726f2061646460008201527f7265737300000000000000000000000000000000000000000000000000000000602082015250565b7f4552433732313a20617070726f766520746f2063616c6c657200000000000000600082015250565b7f4552433732313a206f70657261746f7220717565727920666f72206e6f6e657860008201527f697374656e7420746f6b656e0000000000000000000000000000000000000000602082015250565b7f3c2f746578743e3c2f7376673e00000000000000000000000000000000000000600082015250565b7f2000000000000000000000000000000000000000000000000000000000000000600082015250565b7f7b226e616d65223a202252616e646f6d20576f72647320230000000000000000600082015250565b7f4552433732313a20617070726f76652063616c6c6572206973206e6f74206f7760008201527f6e6572206e6f7220617070726f76656420666f7220616c6c0000000000000000602082015250565b7f4552433732313a2062616c616e636520717565727920666f7220746865207a6560008201527f726f206164647265737300000000000000000000000000000000000000000000602082015250565b7f4552433732313a206f776e657220717565727920666f72206e6f6e657869737460008201527f656e7420746f6b656e0000000000000000000000000000000000000000000000602082015250565b7f45524337323155524953746f726167653a2055524920736574206f66206e6f6e60008201527f6578697374656e7420746f6b656e000000000000000000000000000000000000602082015250565b7f227d000000000000000000000000000000000000000000000000000000000000600082015250565b7f4552433732313a206d696e7420746f20746865207a65726f2061646472657373600082015250565b7f45524337323155524953746f726167653a2055524920717565727920666f722060008201527f6e6f6e6578697374656e7420746f6b656e000000000000000000000000000000602082015250565b7f4552433732313a20617070726f76656420717565727920666f72206e6f6e657860008201527f697374656e7420746f6b656e0000000000000000000000000000000000000000602082015250565b7f4552433732314d657461646174613a2055524920717565727920666f72206e6f60008201527f6e6578697374656e7420746f6b656e0000000000000000000000000000000000602082015250565b7f222c2022696d616765223a2022646174613a696d6167652f7376672b786d6c3b60008201527f6261736536342c00000000000000000000000000000000000000000000000000602082015250565b7f4552433732313a20617070726f76616c20746f2063757272656e74206f776e6560008201527f7200000000000000000000000000000000000000000000000000000000000000602082015250565b7f3c7374796c653e2e62617365207b2066696c6c3a2077686974653b20666f6e7460008201527f2d66616d696c793a2073657269663b20666f6e742d73697a653a20313470783b60208201527f207d3c2f7374796c653e00000000000000000000000000000000000000000000604082015250565b7f646174613a6170706c69636174696f6e2f6a736f6e3b6261736536342c000000600082015250565b7f3c7465787420783d223530252220793d223530252220636c6173733d2262617360008201527f652220646f6d696e616e742d626173656c696e653d226d6964646c652220746560208201527f78742d616e63686f723d226d6964646c65223e00000000000000000000000000604082015250565b7f4552433732313a207472616e736665722063616c6c6572206973206e6f74206f60008201527f776e6572206e6f7220617070726f766564000000000000000000000000000000602082015250565b613bea816131d8565b8114613bf557600080fd5b50565b613c01816131ea565b8114613c0c57600080fd5b50565b613c18816131f6565b8114613c2357600080fd5b50565b613c2f81613242565b8114613c3a57600080fd5b5056fe416e204e465420772f20494420257320686173206265656e206d696e74656420746f2025734142434445464748494a4b4c4d4e4f505152535455565758595a6162636465666768696a6b6c6d6e6f707172737475767778797a303132333435363738392b2fa2646970667358221220f84164136ec54ade04c7ac65c65d34f5f42c09672b9567cbd62f5f90753a4a5864736f6c63430008010033",
  "linkReferences": {},
  "deployedLinkReferences": {}
}