{
  "abi": [
    {
      "inputs": [],
      "stateMutability": "nonpayable",
      "type": "constructor"
    },
    {
      "anonymous": false,
      "inputs": [
        {
          "indexed": true,
          "internalType": "address",
          "name": "owner",
          "type": "address"
        },
        {
          "indexed": true,
          "internalType": "address",
          "name": "approved",
          "type": "address"
        },
        {
          "indexed": true,
          "internalType": "uint256",
          "name": "tokenId",
          "type": "uint256"
        }
      ],
      "name": "Approval",
      "type": "event"
    },
    {
      "anonymous": false,
      "inputs": [
        {
          "indexed": true,
          "internalType": "address",
          "name": "owner",
          "type": "address"
        },
        {
          "indexed": true,
          "internalType": "address",
          "name": "operator",
          "type": "address"
        },
        {
          "indexed": false,
          "internalType": "bool",
          "name": "approved",
          "type": "bool"
        }
      ],
      "name": "ApprovalForAll",
      "type": "event"
    },
    {
      "anonymous": false,
      "inputs": [
        {
          "indexed": true,
          "internalType": "address",
          "name": "from",
          "type": "address"
        },
        {
          "indexed": true,
          "internalType": "address",
          "name": "to",
          "type": "address"
        },
        {
          "indexed": true,
          "internalType": "uint256",
          "name": "tokenId",
          "type": "uint256"
        }
      ],
      "name": "Transfer",
      "type": "event"
    },
    {
      "inputs": [],
      "name": "MAX_HOLD",
      "outputs": [
        {
          "internalType": "uint16",
          "name": "",
          "type": "uint16"
        }
      ],
      "stateMutability": "view",
      "type": "function"
    },
    {
      "inputs": [],
      "name": "MAX_SUPPLY",
      "outputs": [
        {
          "internalType": "uint16",
          "name": "",
          "type": "uint16"
        }
      ],
      "stateMutability": "view",
      "type": "function"
    },
    {
      "inputs": [],
      "name": "MAX_TX",
      "outputs": [
        {
          "internalType": "uint8",
          "name": "",
          "type": "uint8"
        }
      ],
      "stateMutability": "view",
      "type": "function"
    },
    {
      "inputs": [
        {
          "internalType": "address",
          "name": "to",
          "type": "address"
        },
        {
          "internalType": "uint256",
          "name": "tokenId",
          "type": "uint256"
        }
      ],
      "name": "approve",
      "outputs": [],
      "stateMutability": "nonpayable",
      "type": "function"
    },
    {
      "inputs": [
        {
          "internalType": "address",
          "name": "owner",
          "type": "address"
        }
      ],
      "name": "balanceOf",
      "outputs": [
        {
          "internalType": "uint256",
          "name": "",
          "type": "uint256"
        }
      ],
      "stateMutability": "view",
      "type": "function"
    },
    {
      "inputs": [],
      "name": "currentSupply",
      "outputs": [
        {
          "internalType": "uint16",
          "name": "",
          "type": "uint16"
        }
      ],
      "stateMutability": "view",
      "type": "function"
    },
    {
      "inputs": [
        {
          "internalType": "uint256",
          "name": "tokenId",
          "type": "uint256"
        }
      ],
      "name": "getApproved",
      "outputs": [
        {
          "internalType": "address",
          "name": "",
          "type": "address"
        }
      ],
      "stateMutability": "view",
      "type": "function"
    },
    {
      "inputs": [
        {
          "internalType": "address",
          "name": "owner",
          "type": "address"
        },
        {
          "internalType": "address",
          "name": "operator",
          "type": "address"
        }
      ],
      "name": "isApprovedForAll",
      "outputs": [
        {
          "internalType": "bool",
          "name": "",
          "type": "bool"
        }
      ],
      "stateMutability": "view",
      "type": "function"
    },
    {
      "inputs": [
        {
          "internalType": "uint16",
          "name": "_quantity",
          "type": "uint16"
        }
      ],
      "name": "mint",
      "outputs": [],
      "stateMutability": "nonpayable",
      "type": "function"
    },
    {
      "inputs": [],
      "name": "name",
      "outputs": [
        {
          "internalType": "string",
          "name": "",
          "type": "string"
        }
      ],
      "stateMutability": "view",
      "type": "function"
    },
    {
      "inputs": [
        {
          "internalType": "uint256",
          "name": "tokenId",
          "type": "uint256"
        }
      ],
      "name": "ownerOf",
      "outputs": [
        {
          "internalType": "address",
          "name": "",
          "type": "address"
        }
      ],
      "stateMutability": "view",
      "type": "function"
    },
    {
      "inputs": [
        {
          "internalType": "address",
          "name": "from",
          "type": "address"
        },
        {
          "internalType": "address",
          "name": "to",
          "type": "address"
        },
        {
          "internalType": "uint256",
          "name": "tokenId",
          "type": "uint256"
        }
      ],
      "name": "safeTransferFrom",
      "outputs": [],
      "stateMutability": "nonpayable",
      "type": "function"
    },
    {
      "inputs": [
        {
          "internalType": "address",
          "name": "from",
          "type": "address"
        },
        {
          "internalType": "address",
          "name": "to",
          "type": "address"
        },
        {
          "internalType": "uint256",
          "name": "tokenId",
          "type": "uint256"
        },
        {
          "internalType": "bytes",
          "name": "_data",
          "type": "bytes"
        }
      ],
      "name": "safeTransferFrom",
      "outputs": [],
      "stateMutability": "nonpayable",
      "type": "function"
    },
    {
      "inputs": [
        {
          "internalType": "address",
          "name": "operator",
          "type": "address"
        },
        {
          "internalType": "bool",
          "name": "approved",
          "type": "bool"
        }
      ],
      "name": "setApprovalForAll",
      "outputs": [],
      "stateMutability": "nonpayable",
      "type": "function"
    },
    {
      "inputs": [
        {
          "internalType": "bytes4",
          "name": "interfaceId",
          "type": "bytes4"
        }
      ],
      "name": "supportsInterface",
      "outputs": [
        {
          "internalType": "bool",
          "name": "",
          "type": "bool"
        }
      ],
      "stateMutability": "view",
      "type": "function"
    },
    {
      "inputs": [],
      "name": "symbol",
      "outputs": [
        {
          "internalType": "string",
          "name": "",
          "type": "string"
        }
      ],
      "stateMutability": "view",
      "type": "function"
    },
    {
      "inputs": [
        {
          "internalType": "uint256",
          "name": "_tokenId",
          "type": "uint256"
        }
      ],
      "name": "tokenURI",
      "outputs": [
        {
          "internalType": "string",
          "name": "",
          "type": "string"
        }
      ],
      "stateMutability": "view",
      "type": "function"
    },
    {
      "inputs": [
        {
          "internalType": "address",
          "name": "from",
          "type": "address"
        },
        {
          "internalType": "address",
          "name": "to",
          "type": "address"
        },
        {
          "internalType": "uint256",
          "name": "tokenId",
          "type": "uint256"
        }
      ],
      "name": "transferFrom",
      "outputs": [],
      "stateMutability": "nonpayable",
      "type": "function"
    }
  ],
  "bytecode": {
    "object": "0x600680546001600160481b0319166432014d1a0a178155600b6101c09081526a496c6c75737472696f757360a81b6101e05260809081526008610200818152671058995c9c985b9d60c21b6102205260a0526007610240818152661058985cda195960ca1b6102605260c05261028081815266456c6465726c7960c81b6102a05260e0526102c08481526547727562627960d01b6102e052610100526005610300908152644d6573737960d81b610320526101205261034082815267141a1e5cda58d85b60c21b6103605261014052610380938452654d656c6c6f7760d01b6103a0526101609390935260036103c0908152624f6e6560e81b6103e0526101805261044060405261040090815267536c69707065727960c01b610420526101a0526200012e9190600a620006fa565b506040518061014001604052806040518060400160405280600681526020016546696572636560d01b815250815260200160405180604001604052806005815260200164053746565760dc1b815250815260200160405180604001604052806005815260200164090c2e4e6d60db1b8152508152602001604051806040016040528060058152602001644d6163686f60d81b81525081526020016040518060400160405280600c81526020016b456e7468757369617374696360a01b815250815260200160405180604001604052806006815260200165145d585a5b9d60d21b81525081526020016040518060400160405280600a81526020016911195d195c9b5a5b995960b21b81525081526020016040518060400160405280600881526020016710dbdb1bdcdcd85b60c21b8152508152602001604051806040016040528060058152602001644a7569637960d81b81525081526020016040518060400160405280600881526020016710589b9bdc9b585b60c21b815250815250600890600a620002bd929190620006fa565b50604080516101808101825260096101408201818152681158dbdb9bdb5a5cdd60ba1b6101608401528252825180840184526006815265283630bcb2b960d11b602082810191909152808401919091528351808501855260088082526721bab9ba37b6b2b960c11b82840152848601919091528451808601865281815267115b195c1a185b9d60c21b818401526060850152845180860186528181526721b430b6b834b7b760c11b81840152608085015284518086018652600b81526a50737963686564656c696360a81b8184015260a0850152845180860186526005808252642bb7b6b0b760d91b8285015260c086019190915285518087018752600381526226b0b760e91b8185015260e0860152855180870187529081526410da1a5b1960da1b8184015261010085015284518086019095528452674865646765686f6760c01b908401526101208201929092526200041b9190600a620006fa565b50604080516102c08101825260286102608201818152607461028084015260a66102a08401528252825160608181018552601f825260616020838101829052608d848801528086019390935285518083018752606c8152603481850152608381880152858701528551808301875260768152604481850152608a81880152828601528551808301875260b08152603a81850152602e8188015260808601528551808301875260928152602b81850152602181880181905260a0808801929092528751808501895260b981526077818701819052600e828b015260c089019190915288518086018a5260b7808252609582890152600b828c015260e08a019190915289518087018b5260238152609b818901526056818c01526101008a015289518087018b52601e81526084818901526049818c01526101208a015289518087018b5260118152607a818901526065818c01526101408a015289518087018b5260148152608f81890152808b019290925261016089019190915288518086018a529687526037878701526047878a015261018088019690965287518085018952928352606a83860152606b838901526101a08701929092528651808401885260718152607d81860152607e818901526101c087015286518084018852609081526094818601526097818901526101e08701528651808401885260b3815260b681860152808801959095526102008601949094528551808301875293845283830186905260008487015261022085019390935284519081018552918252602f90820152603d928101929092526102408101919091526200067e90600a9060136200075e565b503480156200068c57600080fd5b50604080518082018252600c81526b52616e646f6d20576f72647360a01b602080830191825283518085019094526002845261525760f01b908401528151919291620006db91600091620007b8565b508051620006f1906001906020840190620007b8565b505050620009a4565b8280548282559060005260206000209081019282156200074c579160200282015b828111156200074c57825180516200073b918491602090910190620007b8565b50916020019190600101906200071b565b506200075a92915062000843565b5090565b828054828255906000526020600020908101928215620007aa579160200282015b82811115620007aa57825162000799908390600362000864565b50916020019190600101906200077f565b506200075a929150620008f9565b828054620007c69062000967565b90600052602060002090601f016020900481019282620007ea576000855562000835565b82601f106200080557805160ff191683800117855562000835565b8280016001018555821562000835579182015b828111156200083557825182559160200191906001019062000818565b506200075a9291506200090f565b808211156200075a5760006200085a828262000925565b5060010162000843565b600183019183908215620008355791602002820160005b83821115620008bb57835183826101000a81548160ff021916908360ff16021790555092602001926001016020816000010492830192600103026200087b565b8015620008ea5782816101000a81549060ff0219169055600101602081600001049283019260010302620008bb565b50506200075a9291506200090f565b808211156200075a5760008155600101620008f9565b808211156200075a5760008155600101620008f9565b508054620009339062000967565b6000825580601f1062000944575050565b601f0160209004906000526020600020908101906200096491906200090f565b50565b600181811c908216806200097c57607f821691505b602082108114156200099e57634e487b7160e01b600052602260045260246000fd5b50919050565b61229780620009b46000396000f3fe608060405234801561001057600080fd5b50600436106101165760003560e01c806370a08231116100a2578063b88d4fde11610071578063b88d4fde1461025a578063c87b56dd1461026d578063d40a9c4f14610280578063e985e9c514610294578063f3b2db3f146102d057600080fd5b806370a0823114610205578063771282f61461022657806395d89b411461023f578063a22cb4651461024757600080fd5b806323b872dd116100e957806323b872dd1461019857806323cf0a22146101ab57806332cb6b0c146101be57806342842e0e146101df5780636352211e146101f257600080fd5b806301ffc9a71461011b57806306fdde0314610143578063081812fc14610158578063095ea7b314610183575b600080fd5b61012e6101293660046118e3565b6102f7565b60405190151581526020015b60405180910390f35b61014b610349565b60405161013a919061195f565b61016b610166366004611972565b6103db565b6040516001600160a01b03909116815260200161013a565b6101966101913660046119a7565b610475565b005b6101966101a63660046119d1565b61058b565b6101966101b9366004611a0d565b6105bc565b6006546101cc9061ffff1681565b60405161ffff909116815260200161013a565b6101966101ed3660046119d1565b61082c565b61016b610200366004611972565b610847565b610218610213366004611a31565b6108be565b60405190815260200161013a565b6006546101cc90670100000000000000900461ffff1681565b61014b610945565b610196610255366004611a4c565b610954565b610196610268366004611a9e565b61095f565b61014b61027b366004611972565b610997565b6006546101cc9062010000900461ffff1681565b61012e6102a2366004611b7a565b6001600160a01b03918216600090815260056020908152604080832093909416825291909152205460ff1690565b6006546102e590640100000000900460ff1681565b60405160ff909116815260200161013a565b60006001600160e01b031982166380ac58cd60e01b148061032857506001600160e01b03198216635b5e139f60e01b145b8061034357506301ffc9a760e01b6001600160e01b03198316145b92915050565b60606000805461035890611bad565b80601f016020809104026020016040519081016040528092919081815260200182805461038490611bad565b80156103d15780601f106103a6576101008083540402835291602001916103d1565b820191906000526020600020905b8154815290600101906020018083116103b457829003601f168201915b5050505050905090565b6000818152600260205260408120546001600160a01b03166104595760405162461bcd60e51b815260206004820152602c60248201527f4552433732313a20617070726f76656420717565727920666f72206e6f6e657860448201526b34b9ba32b73a103a37b5b2b760a11b60648201526084015b60405180910390fd5b506000908152600460205260409020546001600160a01b031690565b600061048082610847565b9050806001600160a01b0316836001600160a01b031614156104ee5760405162461bcd60e51b815260206004820152602160248201527f4552433732313a20617070726f76616c20746f2063757272656e74206f776e656044820152603960f91b6064820152608401610450565b336001600160a01b038216148061050a575061050a81336102a2565b61057c5760405162461bcd60e51b815260206004820152603860248201527f4552433732313a20617070726f76652063616c6c6572206973206e6f74206f7760448201527f6e6572206e6f7220617070726f76656420666f7220616c6c00000000000000006064820152608401610450565b61058683836109c4565b505050565b6105953382610a32565b6105b15760405162461bcd60e51b815260040161045090611be8565b610586838383610b29565b60008161ffff16116106105760405162461bcd60e51b815260206004820152601a60248201527f4d696e743a207175616e74697479206d757374206265203e20300000000000006044820152606401610450565b600654640100000000900460ff1661ffff821611156106715760405162461bcd60e51b815260206004820152601b60248201527f4d696e743a207175616e746974792061626f7665204d41585f545800000000006044820152606401610450565b60065461ffff8082169161069091849165010000000000900416611c4f565b61069b906001611c4f565b61ffff1611156106f75760405162461bcd60e51b815260206004820152602160248201527f4d696e743a207175616e746974792065786365656473204d41585f535550504c6044820152605960f81b6064820152608401610450565b60065462010000900461ffff168161070e336108be565b6107189190611c4f565b61ffff1611156107765760405162461bcd60e51b815260206004820152602360248201527f4d696e743a204561636820686f6c6465722063616e206f6e6c7920686f6c642060448201526233333360e81b6064820152608401610450565b60005b8161ffff168161ffff161015610828576006546107a490339065010000000000900461ffff16610cc5565b6006805465010000000000900461ffff169060056107c183611c75565b91906101000a81548161ffff021916908361ffff160217905550506006600781819054906101000a900461ffff16809291906107fc90611c75565b91906101000a81548161ffff021916908361ffff160217905550508061082190611c75565b9050610779565b5050565b6105868383836040518060200160405280600081525061095f565b6000818152600260205260408120546001600160a01b0316806103435760405162461bcd60e51b815260206004820152602960248201527f4552433732313a206f776e657220717565727920666f72206e6f6e657869737460448201526832b73a103a37b5b2b760b91b6064820152608401610450565b60006001600160a01b0382166109295760405162461bcd60e51b815260206004820152602a60248201527f4552433732313a2062616c616e636520717565727920666f7220746865207a65604482015269726f206164647265737360b01b6064820152608401610450565b506001600160a01b031660009081526003602052604090205490565b60606001805461035890611bad565b610828338383610cdf565b6109693383610a32565b6109855760405162461bcd60e51b815260040161045090611be8565b61099184848484610dae565b50505050565b6000818152600260205260409020546060906001600160a01b03166109bb57600080fd5b61034382610de1565b600081815260046020526040902080546001600160a01b0319166001600160a01b03841690811790915581906109f982610847565b6001600160a01b03167f8c5be1e5ebec7d5bd14f71427d1e84f3dd0314c0f7b2291e5b200ac8c7c3b92560405160405180910390a45050565b6000818152600260205260408120546001600160a01b0316610aab5760405162461bcd60e51b815260206004820152602c60248201527f4552433732313a206f70657261746f7220717565727920666f72206e6f6e657860448201526b34b9ba32b73a103a37b5b2b760a11b6064820152608401610450565b6000610ab683610847565b9050806001600160a01b0316846001600160a01b03161480610af15750836001600160a01b0316610ae6846103db565b6001600160a01b0316145b80610b2157506001600160a01b0380821660009081526005602090815260408083209388168352929052205460ff165b949350505050565b826001600160a01b0316610b3c82610847565b6001600160a01b031614610ba05760405162461bcd60e51b815260206004820152602560248201527f4552433732313a207472616e736665722066726f6d20696e636f72726563742060448201526437bbb732b960d91b6064820152608401610450565b6001600160a01b038216610c025760405162461bcd60e51b8152602060048201526024808201527f4552433732313a207472616e7366657220746f20746865207a65726f206164646044820152637265737360e01b6064820152608401610450565b610c0d6000826109c4565b6001600160a01b0383166000908152600360205260408120805460019290610c36908490611c97565b90915550506001600160a01b0382166000908152600360205260408120805460019290610c64908490611cae565b909155505060008181526002602052604080822080546001600160a01b0319166001600160a01b0386811691821790925591518493918716917fddf252ad1be2c89b69c2b068fc378daa952ba7f163c4a11628f55a4df523b3ef91a4505050565b610828828260405180602001604052806000815250610e6e565b816001600160a01b0316836001600160a01b03161415610d415760405162461bcd60e51b815260206004820152601960248201527f4552433732313a20617070726f766520746f2063616c6c6572000000000000006044820152606401610450565b6001600160a01b03838116600081815260056020908152604080832094871680845294825291829020805460ff191686151590811790915591519182527f17307eab39ab6107e8899845ad3d59bd9653f200f220920489ca2b5937696c31910160405180910390a3505050565b610db9848484610b29565b610dc584848484610ea1565b6109915760405162461bcd60e51b815260040161045090611cc6565b60606000610df6610df184610f9f565b61106d565b90506000610e038261131b565b90506060610e45610e178661ffff166113ae565b610e20846114ac565b604051602001610e31929190611d34565b6040516020818303038152906040526114ac565b604051602001610e559190611dd4565b60408051601f1981840301815291905295945050505050565b610e788383611612565b610e856000848484610ea1565b6105865760405162461bcd60e51b815260040161045090611cc6565b60006001600160a01b0384163b15610f9457604051630a85bd0160e11b81526001600160a01b0385169063150b7a0290610ee5903390899088908890600401611e19565b6020604051808303816000875af1925050508015610f20575060408051601f3d908101601f19168201909252610f1d91810190611e56565b60015b610f7a573d808015610f4e576040519150601f19603f3d011682016040523d82523d6000602084013e610f53565b606091505b508051610f725760405162461bcd60e51b815260040161045090611cc6565b805181602001fd5b6001600160e01b031916630a85bd0160e11b149050610b21565b506001949350505050565b610fa7611861565b6040516001600160f01b031960f084901b1660208201526bffffffffffffffffffffffff193360601b1660228201524260368201526000906056016040516020818303038152906040528051906020012060001c9050611005611861565b60075461101690600184901c611e89565b60ff16815260085461102c90600284901c611e89565b60ff16602082015260095461104590600384901c611e89565b60ff166040820152600a5461105e90600484901c611e89565b60ff1660608201529392505050565b61107561187f565b6040805160808101909152825160078054839260ff1690811061109a5761109a611e9d565b9060005260206000200180546110af90611bad565b80601f01602080910402602001604051908101604052809291908181526020018280546110db90611bad565b80156111285780601f106110fd57610100808354040283529160200191611128565b820191906000526020600020905b81548152906001019060200180831161110b57829003601f168201915b50505091835250506020016008846001602002015160ff168154811061115057611150611e9d565b90600052602060002001805461116590611bad565b80601f016020809104026020016040519081016040528092919081815260200182805461119190611bad565b80156111de5780601f106111b3576101008083540402835291602001916111de565b820191906000526020600020905b8154815290600101906020018083116111c157829003601f168201915b50505091835250506020016009846002602002015160ff168154811061120657611206611e9d565b90600052602060002001805461121b90611bad565b80601f016020809104026020016040519081016040528092919081815260200182805461124790611bad565b80156112945780601f1061126957610100808354040283529160200191611294565b820191906000526020600020905b81548152906001019060200180831161127757829003601f168201915b5050509183525050602001600a846003602002015160ff16815481106112bc576112bc611e9d565b6000918252602082206040805160608101918290529391909201916003918390855b825461010083900a900460ff168152602060019283018181049485019490930390920291018084116112de57905050505050508152509050919050565b60608181015160009061133790825b602002015160ff16611754565b606084015161134790600161132a565b606085015161135790600261132a565b60405160200161136993929190611eb3565b60408051601f1981840301815282825285516020878101519388015192955061139794869492939101612031565b60408051601f198184030181529190529392505050565b6060816113d25750506040805180820190915260018152600360fc1b602082015290565b8160005b81156113fc57806113e681612127565b91506113f59050600a83612142565b91506113d6565b60008167ffffffffffffffff81111561141757611417611a88565b6040519080825280601f01601f191660200182016040528015611441576020820181803683370190505b5090505b8415610b2157611456600183611c97565b9150611463600a86611e89565b61146e906030611cae565b60f81b81838151811061148357611483611e9d565b60200101906001600160f81b031916908160001a9053506114a5600a86612142565b9450611445565b60608151600014156114cc57505060408051602081019091526000815290565b600060405180606001604052806040815260200161222260409139905060006003845160026114fb9190611cae565b6115059190612142565b611510906004612156565b9050600061151f826020611cae565b67ffffffffffffffff81111561153757611537611a88565b6040519080825280601f01601f191660200182016040528015611561576020820181803683370190505b509050818152600183018586518101602084015b818310156115cd576003830192508251603f8160121c168501518253600182019150603f81600c1c168501518253600182019150603f8160061c168501518253600182019150603f8116850151825350600101611575565b6003895106600181146115e757600281146115f857611604565b613d3d60f01b600119830152611604565b603d60f81b6000198301525b509398975050505050505050565b6001600160a01b0382166116685760405162461bcd60e51b815260206004820181905260248201527f4552433732313a206d696e7420746f20746865207a65726f20616464726573736044820152606401610450565b6000818152600260205260409020546001600160a01b0316156116cd5760405162461bcd60e51b815260206004820152601c60248201527f4552433732313a20746f6b656e20616c7265616479206d696e746564000000006044820152606401610450565b6001600160a01b03821660009081526003602052604081208054600192906116f6908490611cae565b909155505060008181526002602052604080822080546001600160a01b0319166001600160a01b03861690811790915590518392907fddf252ad1be2c89b69c2b068fc378daa952ba7f163c4a11628f55a4df523b3ef908290a45050565b606060ff821661177b5750506040805180820190915260018152600360fc1b602082015290565b8160005b60ff8216156117a8578061179281612175565b91506117a19050600a83612195565b915061177f565b60008160ff1667ffffffffffffffff8111156117c6576117c6611a88565b6040519080825280601f01601f1916602001820160405280156117f0576020820181803683370190505b5090505b60ff851615610b21576118086001836121b7565b9150611815600a866121da565b6118209060306121fc565b60f81b818360ff168151811061183857611838611e9d565b60200101906001600160f81b031916908160001a90535061185a600a86612195565b94506117f4565b60405180608001604052806004906020820280368337509192915050565b60405180608001604052806060815260200160608152602001606081526020016118a76118ac565b905290565b60405180606001604052806003906020820280368337509192915050565b6001600160e01b0319811681146118e057600080fd5b50565b6000602082840312156118f557600080fd5b8135611900816118ca565b9392505050565b60005b8381101561192257818101518382015260200161190a565b838111156109915750506000910152565b6000815180845261194b816020860160208601611907565b601f01601f19169290920160200192915050565b6020815260006119006020830184611933565b60006020828403121561198457600080fd5b5035919050565b80356001600160a01b03811681146119a257600080fd5b919050565b600080604083850312156119ba57600080fd5b6119c38361198b565b946020939093013593505050565b6000806000606084860312156119e657600080fd5b6119ef8461198b565b92506119fd6020850161198b565b9150604084013590509250925092565b600060208284031215611a1f57600080fd5b813561ffff8116811461190057600080fd5b600060208284031215611a4357600080fd5b6119008261198b565b60008060408385031215611a5f57600080fd5b611a688361198b565b915060208301358015158114611a7d57600080fd5b809150509250929050565b634e487b7160e01b600052604160045260246000fd5b60008060008060808587031215611ab457600080fd5b611abd8561198b565b9350611acb6020860161198b565b925060408501359150606085013567ffffffffffffffff80821115611aef57600080fd5b818701915087601f830112611b0357600080fd5b813581811115611b1557611b15611a88565b604051601f8201601f19908116603f01168101908382118183101715611b3d57611b3d611a88565b816040528281528a6020848701011115611b5657600080fd5b82602086016020830137600060208483010152809550505050505092959194509250565b60008060408385031215611b8d57600080fd5b611b968361198b565b9150611ba46020840161198b565b90509250929050565b600181811c90821680611bc157607f821691505b60208210811415611be257634e487b7160e01b600052602260045260246000fd5b50919050565b60208082526031908201527f4552433732313a207472616e736665722063616c6c6572206973206e6f74206f6040820152701ddb995c881b9bdc88185c1c1c9bdd9959607a1b606082015260800190565b634e487b7160e01b600052601160045260246000fd5b600061ffff808316818516808303821115611c6c57611c6c611c39565b01949350505050565b600061ffff80831681811415611c8d57611c8d611c39565b6001019392505050565b600082821015611ca957611ca9611c39565b500390565b60008219821115611cc157611cc1611c39565b500190565b60208082526032908201527f4552433732313a207472616e7366657220746f206e6f6e20455243373231526560408201527131b2b4bb32b91034b6b83632b6b2b73a32b960711b606082015260800190565b60008151611d2a818560208601611907565b9290920192915050565b7f7b226e616d65223a202252616e646f6d20576f72647320230000000000000000815260008351611d6c816018850160208801611907565b7f222c2022696d616765223a2022646174613a696d6167652f7376672b786d6c3b6018918401918201526618985cd94d8d0b60ca1b60388201528351611db981603f840160208801611907565b61227d60f01b603f9290910191820152604101949350505050565b7f646174613a6170706c69636174696f6e2f6a736f6e3b6261736536342c000000815260008251611e0c81601d850160208701611907565b91909101601d0192915050565b6001600160a01b0385811682528416602082015260408101839052608060608201819052600090611e4c90830184611933565b9695505050505050565b600060208284031215611e6857600080fd5b8151611900816118ca565b634e487b7160e01b600052601260045260246000fd5b600082611e9857611e98611e73565b500690565b634e487b7160e01b600052603260045260246000fd5b7f3c73766720786d6c6e733d22687474703a2f2f7777772e77332e6f72672f323081527f30302f73766722207072657365727665417370656374526174696f3d22784d6960208201527f6e594d696e206d656574222076696577426f783d22302030203335302033353060408201527f223e3c7374796c653e2e62617365207b2066696c6c3a2077686974653b20666f60608201527f6e742d66616d696c793a2073657269663b20666f6e742d73697a653a2031347060808201527f783b207d3c2f7374796c653e3c726563742077696474683d223130302522206860a08201527f65696768743d2231303025222066696c6c3d227267626128000000000000000060c082015260008451611fcf8160d8850160208901611907565b600b60fa1b60d8918401918201528451611ff08160d9840160208901611907565b61202661201261200c60d984860101600b60fa1b815260010190565b87611d18565b67161897181491179f60c11b815260080190565b979650505050505050565b60008551612043818460208a01611907565b80830190507f3c7465787420783d223530252220793d223530252220636c6173733d2262617381527f652220646f6d696e616e742d626173656c696e653d226d6964646c65222074656020820152723c3a16b0b731b437b91e9136b4b2323632911f60691b604082015285516120c0816053840160208a01611907565b808201915050600160fd1b80605383015285516120e4816054850160208a01611907565b605492019182015283516120ff816055840160208801611907565b6c1e17ba32bc3a1f1e17b9bb339f60991b605592909101918201526062019695505050505050565b600060001982141561213b5761213b611c39565b5060010190565b60008261215157612151611e73565b500490565b600081600019048311821515161561217057612170611c39565b500290565b600060ff821660ff81141561218c5761218c611c39565b60010192915050565b600060ff8316806121a8576121a8611e73565b8060ff84160491505092915050565b600060ff821660ff8416808210156121d1576121d1611c39565b90039392505050565b600060ff8316806121ed576121ed611e73565b8060ff84160691505092915050565b600060ff821660ff84168060ff0382111561221957612219611c39565b01939250505056fe4142434445464748494a4b4c4d4e4f505152535455565758595a6162636465666768696a6b6c6d6e6f707172737475767778797a303132333435363738392b2fa264697066735822122035db9f12962c4e85df8aea018dcf9b4e53b005c44c4e2fb5bccc2089c93bc03f64736f6c634300080a0033",
    "linkReferences": {}
  }
}